:020000040800F2
:100000000000022029320008DD2F0008E52F00083B
:10001000ED2F0008F52F0008FD2F0008000000005C
:100020000000000000000000000000000530000893
:1000300013300008000000002130000831300008B3
:1000400079320008793200087932000879320008E4
:1000500079320008793200087932000879320008D4
:1000600079320008793200087932000879320008C4
:1000700079320008793200087932000879320008B4
:1000800079320008793200087932000861300008BE
:10009000753000088930000879320008793200088C
:1000A0007932000879320008793200087932000884
:1000B0007932000879320008793200087932000874
:1000C0007932000879320008793200087932000864
:1000D00079320008793200089D3000087932000832
:1000E0007932000879320008793200087932000844
:1000F0007932000879320008793200087932000834
:100100007932000879320008793200087932000823
:100110007932000879320008793200087932000813
:100120007932000879320008793200087932000803
:1001300079320008793200087932000879320008F3
:1001400079320008793200087932000879320008E3
:1001500079320008793200087932000879320008D3
:1001600079320008793200087932000879320008C3
:100170007932000879320008793200080000000066
:08018000793200087932000811
:1001900010B5054C237833B9044B13B10448AFF3C1
:1001A00000800123237010BD5003002000000000D8
:1001B000ECCD000808B5034B1BB103490348AFF36E
:1001C000008008BD0000000054030020ECCD0008B2
:1001D00001F0FF01102A2BDB10F0070F08D010F8F8
:1001E000013B013A8B422DD010F0070F42B3F6D1FC
:1001F000F0B441EA012141EA014122F007047FF015
:1002000000070023F0E80256083C85EA010586EA6B
:10021000010685FA47F5A3FA87F586FA47F6A5FAA7
:1002200087F68EB9EED1F0BC01F0FF0102F00702B3
:1002300032B110F8013B013A83EA010313B1F8D15E
:100240000020704701387047002D06BF354603383F
:10025000073815F0010F07D1013015F4807F02BF78
:10026000013015F4C03F0130F0BC0138704700BFC9
:10027000034613F8012B002AFBD1181A01387047E6
:1002800081F0004102E000BF83F0004330B54FEA47
:1002900041044FEA430594EA050F08BF90EA020FB4
:1002A0001FBF54EA000C55EA020C7FEA645C7FEA47
:1002B000655C00F0E2804FEA5454D4EB5555B8BF6A
:1002C0006D420CDD2C4480EA020281EA030382EADB
:1002D000000083EA010180EA020281EA0303362D6D
:1002E00088BF30BD11F0004F4FEA01314FF4801C40
:1002F0004CEA113102D0404261EB410113F0004F52
:100300004FEA03334CEA133302D0524263EB430308
:1003100094EA050F00F0A780A4F10104D5F1200EA6
:100320000DDB02FA0EFC22FA05F2801841F1000101
:1003300003FA0EF2801843FA05F359410EE0A5F1D5
:1003400020050EF1200E012A03FA0EFC28BF4CF006
:10035000020C43FA05F3C01851EBE37101F00045BC
:1003600007D54FF0000EDCF1000C7EEB00006EEBC9
:100370000101B1F5801F1BD3B1F5001F0CD3490853
:100380005FEA30004FEA3C0C04F101044FEA4452AA
:1003900012F5800F80F09A80BCF1004F08BF5FEA31
:1003A000500C50F1000041EB045141EA050130BD11
:1003B0005FEA4C0C404141EB0101013C28BFB1F523
:1003C000801FE9D291F0000F04BF01460020B1FA6E
:1003D00081F308BF2033A3F10B03B3F120020CDA41
:1003E0000C3208DD02F1140CC2F10C0201FA0CF01F
:1003F00021FA02F10CE002F11402D8BFC2F1200C84
:1004000001FA02F120FA0CFCDCBF41EA0C01904039
:10041000E41AA2BF01EB0451294330BD6FEA040482
:100420001F3C1CDA0C340EDC04F11404C4F120026D
:1004300020FA04F001FA02F340EA030021FA04F37F
:1004400045EA030130BDC4F10C04C4F1200220FAD6
:1004500002F001FA04F340EA0300294630BD21FA14
:1004600004F0294630BD94F0000F83F4801306BFDA
:1004700081F480110134013D4EE77FEA645C18BFCE
:100480007FEA655C29D094EA050F08BF90EA020F65
:1004900005D054EA000C04BF1946104630BD91EA5D
:1004A000030F1EBF0021002030BD5FEA545C05D160
:1004B0004000494128BF41F0004130BD14F580049F
:1004C0003CBF01F5801130BD01F0004545F0FE4113
:1004D00041F470014FF0000030BD7FEA645C1ABF48
:1004E000194610467FEA655C1CBF0B46024650EA7F
:1004F000013406BF52EA033591EA030F41F40021AB
:1005000030BD00BF90F0000F04BF0021704730B530
:100510004FF4806404F132044FF000054FF0000105
:1005200050E700BF90F0000F04BF0021704730B5C6
:100530004FF4806404F1320410F0004548BF40429B
:100540004FF000013EE700BF42004FEAE2014FEAF0
:1005500031014FEA02701FBF12F07F4393F07F4FCB
:1005600081F06051704732F07F4208BF704793F0CE
:100570007F4F04BF41F40021704730B54FF46074E1
:1005800001F0004521F000411CE700BF50EA0102E4
:1005900008BF704730B54FF000050AE050EA01028D
:1005A00008BF704730B511F0004502D5404261EBFD
:1005B00041014FF4806404F132045FEA915C3FF43E
:1005C000D8AE4FF003025FEADC0C18BF03325FEADB
:1005D000DC0C18BF033202EBDC02C2F1200300FA8C
:1005E00003FC20FA02F001FA03FE40EA0E0021FAB1
:1005F00002F11444BDE600BF70B54FF0FF0C4CF49F
:10060000E06C1CEA11541DBF1CEA135594EA0C0F50
:1006100095EA0C0F00F0DEF82C4481EA030621EA8B
:100620004C5123EA4C5350EA013518BF52EA0335C6
:1006300041F4801143F4801338D0A0FB02CE4FF078
:100640000005E1FB02E506F00042E0FB03E54FF0A8
:100650000006E1FB03569CF0000F18BF4EF0010EA0
:10066000A4F1FF04B6F5007F64F5407404D25FEA9C
:100670004E0E6D4146EB060642EAC62141EA55514F
:100680004FEAC52040EA5E504FEACE2EB4F1FD0C91
:1006900088BFBCF5E06F1ED8BEF1004F08BF5FEA0F
:1006A000500E50F1000041EB045170BD06F00046C1
:1006B00046EA010140EA020081EA0301B4EB5C046E
:1006C000C2BFD4EB0C0541EA045170BD41F4801166
:1006D0004FF0000E013C00F3AB8014F1360FDEBF8B
:1006E000002001F0004170BDC4F10004203C35DA67
:1006F0000C341BDC04F11404C4F1200500FA05F3EA
:1007000020FA04F001FA05F240EA020001F000428A
:1007100021F0004110EBD37021FA04F642EB060100
:100720005EEA430E08BF20EAD37070BDC4F10C042A
:10073000C4F1200500FA04F320FA05F001FA04F2EE
:1007400040EA020001F0004110EBD37041F10001DA
:100750005EEA430E08BF20EAD37070BDC4F12005E5
:1007600000FA05F24EEA020E20FA04F301FA05F24D
:1007700043EA020321FA04F001F0004121FA04F2F5
:1007800020EA020000EBD3705EEA430E08BF20EAC5
:10079000D37070BD94F0000F0FD101F000464000FF
:1007A00041EB010111F4801F08BF013CF7D041EA81
:1007B000060195F0000F18BF704703F00046520085
:1007C00043EB030313F4801F08BF013DF7D043EA56
:1007D0000603704794EA0C0F0CEA135518BF95EA0C
:1007E0000C0F0CD050EA410618BF52EA4306D1D193
:1007F00081EA030101F000414FF0000070BD50EAB2
:10080000410606BF1046194652EA430619D094EA3B
:100810000C0F02D150EA013613D195EA0C0F05D125
:1008200052EA03361CBF104619460AD181EA030179
:1008300001F0004141F0FE4141F470014FF0000031
:1008400070BD41F0FE4141F4780170BD70B54FF0CC
:10085000FF0C4CF4E06C1CEA11541DBF1CEA13554C
:1008600094EA0C0F95EA0C0F00F0A7F8A4EB05042E
:1008700081EA030E52EA03354FEA013100F0888025
:100880004FEA03334FF0805545EA131343EA1263EE
:100890004FEA022245EA111545EA10654FEA0026A3
:1008A0000EF000419D4208BF964244F1FD0404F55C
:1008B000407402D25B084FEA3202B61A65EB0305B8
:1008C0005B084FEA32024FF480104FF4002CB6EB75
:1008D000020E75EB030E22BFB61A754640EA0C00F5
:1008E0005B084FEA3202B6EB020E75EB030E22BF35
:1008F000B61A754640EA5C005B084FEA3202B6EB76
:10090000020E75EB030E22BFB61A754640EA9C0034
:100910005B084FEA3202B6EB020E75EB030E22BF04
:10092000B61A754640EADC0055EA060E18D04FEAC2
:10093000051545EA16754FEA06164FEAC30343EA62
:1009400052734FEAC2025FEA1C1CC0D111F4801F2F
:100950000BD141EA00014FF000004FF0004CB6E728
:1009600011F4801F04BF01430020B4F1FD0C88BFC7
:10097000BCF5E06F3FF6AFAEB5EB030C04BFB6EBD2
:10098000020C5FEA500C50F1000041EB045170BDC5
:100990000EF0004E4EEA113114EB5C04C2BFD4EBF2
:1009A0000C0541EA045170BD41F480114FF0000E76
:1009B000013C90E645EA060E8DE60CEA135594EAF2
:1009C0000C0F08BF95EA0C0F3FF43BAF94EA0C0FF5
:1009D0000AD150EA01347FF434AF95EA0C0F7FF46A
:1009E00025AF104619462CE795EA0C0F06D152EABE
:1009F00003353FF4FDAE1046194622E750EA4106A2
:100A000018BF52EA43067FF4C5AE50EA41047FF4B2
:100A10000DAF52EA43057FF4EBAE12E74FF0FF3C17
:100A200006E000BF4FF0010C02E000BF4FF0010CE8
:100A30004DF804CD4FEA410C7FEA6C5C4FEA430C61
:100A400018BF7FEA6C5C1BD001B050EA410C0CBFB0
:100A500052EA430C91EA030F02BF90EA020F002012
:100A6000704710F1000F91EA030F58BF994208BF79
:100A700090422CBFD8176FEAE37040F00100704736
:100A80004FEA410C7FEA6C5C02D150EA013C07D18D
:100A90004FEA430C7FEA6C5CD6D152EA033CD3D0D8
:100AA0005DF8040B704700BF8446104662468C46D2
:100AB0001946634600E000BF01B5FFF7B7FF002805
:100AC00048BF10F1000F01BD4DF808EDFFF7F4FF2E
:100AD0000CBF012000205DF808FB00BF4DF808EDB9
:100AE000FFF7EAFF34BF012000205DF808FB00BFDC
:100AF0004DF808EDFFF7E0FF94BF012000205DF8FE
:100B000008FB00BF4DF808EDFFF7CEFF94BF0120B2
:100B100000205DF808FB00BF4DF808EDFFF7C4FFAB
:100B200034BF012000205DF808FB00BF4FEA410CF4
:100B30007FEA6C5C02D150EA013C0AD14FEA430CD7
:100B40007FEA6C5C02D152EA033C02D14FF0000014
:100B500070474FF0010070474FEA410212F5001252
:100B600015D211D56FF47873B3EB625212D94FEAF4
:100B7000C12343F0004343EA505311F0004F23FADE
:100B800002F018BF404270474FF00000704750EA33
:100B9000013005D111F0004008BF6FF000407047F0
:100BA0004FF00000704700BF4A0011D212F500124A
:100BB00011D20DD56FF47873B3EB62520ED44FEAB5
:100BC000C12343F0004343EA505323FA02F0704735
:100BD0004FF00000704750EA013002D14FF0FF3073
:100BE00070474FF0000070474FEA4102B2F1E04316
:100BF00024BFB3F5001CDCF1FE5C0DD901F0004C04
:100C00004FEAC0024CEA5070B2F1004F40EB830053
:100C100008BF20F00100704711F0804F21D113F17F
:100C20003872BCBF01F00040704741F480114FEAB8
:100C30005252C2F11802C2F1200C10FA0CF320FA41
:100C400002F018BF40F001004FEAC1234FEAD3235E
:100C500003FA0CFC40EA0C0023FA02F34FEA4303C8
:100C6000CCE77FEA625307D150EA01331EBF4FF051
:100C7000FE4040F44000704701F0004040F0FE406C
:100C800040F40000704700BF53B94AB9002908BFBB
:100C900000281CBF4FF0FF314FF0FF3000F0BEB90D
:100CA000ADF1080C6DE904CE00F03CF8DDF804E08D
:100CB000DDE9022304B0704738B500220023044662
:100CC0000D46FFF70BFF28B920462946BDE83840FE
:100CD00000F00AB8204605F1004100F005F8404256
:100CE00061EB410138BD00BFD0B50C4B0022064678
:100CF0000F46FFF781FCFFF757FF0446FFF702FCA2
:100D0000074B0022FFF778FC02460B463046394677
:100D1000FFF7BAFAFFF748FF2146D0BD0000F03DCB
:100D20000000F0412DE9F047089D8E4604468846B4
:100D3000002B4AD18A42174662D9B2FA82F64EB1E6
:100D4000C6F1200301FA06F820FA03F3B74043EA9C
:100D50000808B4404FEA174E1FFA87FCB8FBFEF1B3
:100D6000230C0EFB118843EA084301FB0CF29A4264
:100D700009D9FB1801F1FF3080F0EA809A4240F275
:100D8000E78002393B449A1AA3B2B2FBFEF00EFB95
:100D9000102243EA024300FB0CFC9C4509D9FB18D6
:100DA00000F1FF3280F0D6809C4540F2D3803B4476
:100DB000023840EA0140A3EB0C0300211DB1F340CF
:100DC0000022C5E90032BDE8F0878B4205D90DB19C
:100DD000C5E9000100210846F5E7B3FA83F10029CF
:100DE00046D1734502D3824200F20581841A6EEB2C
:100DF000030201209046002DE5D0C5E90048E2E756
:100E0000002A00F09080B2FA82F6002E40F0A48012
:100E10008A1A030C4FEA174E80B2BCB20121B2FB12
:100E2000FEFC0EFB1C2243EA024304FB0CF29A4236
:100E300007D9FB180CF1FF3802D29A4200F2E08089
:100E4000C4469B1AB3FBFEF20EFB123340EA034387
:100E500002FB04F49C4207D9FB1802F1FF3002D2D6
:100E60009C4200F2CA8002461B1B42EA0C40A5E7E6
:100E7000C1F120068B4022FA06F71F430EFA01F457
:100E800020FA06F32EFA06FE4FEA1749234300FA2A
:100E900001F81FFA87FCBEFBF9F01C0C09FB10EEF1
:100EA00044EA0E4400FB0CFEA64502FA01F209D901
:100EB0003C1900F1FF3A80F09C80A64540F29980F1
:100EC00002383C44A4EB0E041FFA83FEB4FBF9F392
:100ED00009FB13444EEA044403FB0CFCA44508D967
:100EE0003C1903F1FF3E80F08280A4457FD9023B8C
:100EF0003C4443EA0040A4EB0C04A0FB02EC644534
:100F00007346E14662D35FD05DB1B8EB030264EB98
:100F1000090404FA06F622FA01F31E43CC40C5E99F
:100F2000006400214FE7B1FBF2FC010C41EA0E41E5
:100F300080B240EA01423B4638463C46B846BE468F
:100F40002026B1FBF7F1A2EB080241EA0C4166E76B
:100F5000014618E710462CE7C6F120022EFA02F3EC
:100F6000B740B14020FA02F24FEA174E0A43B3FBF2
:100F7000FEF8BCB20EFB1833110C41EA034108FB2A
:100F800004F9B04089454FEA104380B23ED9791840
:100F900008F1FF3C01D289451FD8A1EB0901B1FB43
:100FA000FEF909FB04F80EFB191192B242EA014264
:100FB000424529D2BA1809F1FF31C4D24245C2D202
:100FC000A9F102013A44BEE7F0459DD2BEEB02030F
:100FD0006CEB070C0138E14696E7A7EB0909494499
:100FE000A8F1020CB1FBFEF909FB04F8DBE773463C
:100FF0007FE7504666E70846FDE63B44023A33E7A2
:10100000ACF1020C3B441CE749469CE7A1EB09010B
:10101000C446B1FBFEF909FB04F8C4E7704700BF02
:1010200080B500AF0C4B1B680B4A91880022184614
:1010300003F09EFB084B9B68074A918900221846E3
:1010400003F096FB044B1B69034A918A0022184661
:1010500003F08EFB00BF80BDE000002080B500AF34
:101060000C4B1B680B4A91880022184603F080FB4A
:10107000084B9B68074A91890022184603F078FBC9
:10108000044B1B69034A918A0022184603F070FB47
:1010900000BF80BDE000002080B584B000AF786064
:1010A00039600023FB730BE0FB7BDB003A681344E1
:1010B00008220021184609F04EF9FB7B0133FB732F
:1010C000FB7B042BF0D90023BB734BE0BB7B9B085D
:1010D0007B73BB7B03F003033B733B7B5B00FB72C7
:1010E000FB7A0133BB72BB7B7A6813441B78022BFB
:1010F00024D0022B32DC002B01D0012B2EE07B7B95
:10110000DB003A681A44FB7AD15C7B7BDB003A68EF
:101110001A44FB7A41F00101C9B2D1547B7BDB0058
:101120003A681A44BB7AD15C7B7BDB003A681A448C
:10113000BB7A41F00101C9B2D15410E07B7BDB00E6
:101140003A681A44FB7AD15C7B7BDB003A681A442C
:10115000FB7A41F00101C9B2D15400E000BFBB7B72
:101160000133BB73BB7B132BB0D900BF00BF10375B
:10117000BD4680BD80B584B000AF03463960FB71C9
:101180000023FB7358E0FB792F4A52F83300FB79B8
:101190002D4ADB0013449B880022194603F0E8FA2D
:1011A000012001F04BFDFB79284AA2FB03235B08D9
:1011B000DBB21A46264B53F83200FB79234AA2FBD6
:1011C00003235B08DBB2224ADB0013449988FB7BD4
:1011D0003A6813441B781A4603F0CAFAFB791B4A93
:1011E000A2FB03235B08DBB21A46194B53F832000B
:1011F000FB79164AA2FB03235B08DBB2144ADB002F
:1012000013449988FB7B3A6813441B781A4603F011
:10121000AFFA012001F012FDFB790B4A52F83300BE
:10122000FB79094ADB0013449B880122194603F02D
:101230009FFAFB7B0133FB73FB7B072BA3D900BF1A
:1012400000BF1037BD4680BD00000020ABAAAAAA8F
:10125000C000002080B584B000AF03463960FB7148
:101260003A6807F108031068516803C3FB79134A11
:1012700052F83300FB79114ADB0013449B880022AB
:10128000194603F075FA012002F06AF807F1080226
:10129000FB7911461846FFF76DFFFB79074A52F8B4
:1012A0003300FB79054ADB0013449B880122194671
:1012B00003F05EFA00BF1037BD4680BD600000201D
:1012C00080B586B000AF786020497868FFF7E4FE0B
:1012D00000237B611CE000233B6113E03B69C3F109
:1012E00007031A497A69D2000A4413441978184A44
:1012F0007B69DB001A443B6913440A461A703B6958
:1013000001333B613B69072BE8DD7B6901337B617E
:101310007B69042BDFDD0023FB730EE0FB7BDB002E
:101320000B4A1A44FB7B11461846FFF793FF012036
:1013300002F016F8FB7B0133FB73FB7B042BEDD92A
:1013400000BF00BF1837BD4680BD00BF6C03002042
:101350009403002080B582B000AF786079680620E1
:10136000FFF778FF79680720FFF774FF7968082096
:10137000FFF770FF00BF0837BD4680BD80B582B063
:1013800000AF0F4A3B4692E8030083E803003B4668
:1013900019460920FFF75EFF3B4608220121184647
:1013A00008F0D9FF3B4619460A20FFF753FF3B469A
:1013B00019460B20FFF74EFF00BF0837BD4680BD22
:1013C00008CE000880B582B000AF0F4A3B4692E8D5
:1013D000030083E803003B4619460920FFF73AFF64
:1013E0003B4608220121184608F0B5FF3B46194646
:1013F0000A20FFF72FFF3B4619460B20FFF72AFF75
:1014000000BF0837BD4680BD10CE000890B589B03A
:1014100000AF78600B46FB7007F1080300221A60EA
:101420005A609A60DA601A610023FB7776E0FB7FEE
:10143000DB08DBB2022B38D0022B4FDC002B02D0B2
:10144000012B19D04AE0614B1B68604A9188012248
:10145000184603F08DF95D4B9B685C4A9189002228
:10146000184603F085F9594B1B69584A918A0022A6
:10147000184603F07DF932E0544B1B68534A9188BB
:101480000022184603F074F9504B9B684F4A91892B
:101490000122184603F06CF94C4B1B694B4A918AA8
:1014A0000022184603F064F919E0484B1B68474ACC
:1014B00091880022184603F05BF9444B9B68434A2D
:1014C00091890022184603F053F9404B1B693F4AAB
:1014D000918A0122184603F04BF900E000BF052075
:1014E00001F03EFFFB7F03F00703394A52F8332037
:1014F000FB7F03F007033649DB000B449B88FC7F2E
:101500001946104603F01CF903461A4604F120035D
:101510003B4403F8182CFB7F0133FB77FB7F132B35
:1015200085D9FB78122B15D10923BB770DE0BB7F42
:101530009A1CBB7F20323A4412F8182C20333B44CB
:1015400003F8182CBB7F0133BB77BA7FFB789A4234
:10155000EDD330E0FB78102B15D108237B770DE01D
:101560007B7F1A1D7B7F20323A4412F8182C2033DF
:101570003B4403F8182C7B7F01337B777A7FFB7821
:101580009A42EDD317E0FB780E2B14D107233B775B
:101590000DE03B7F9A1D3B7F20323A4412F8182C15
:1015A00020333B4403F8182C3B7F01333B773A7FD1
:1015B000FB789A42EDD3FA7807F108031946786868
:1015C00008F0C7FF00BF2437BD4690BDE0000020F3
:1015D000F800002090B587B000AFF8600B467A6045
:1015E000FB720023BB750FE0BB7D3B4A52F8330012
:1015F000BB7D394ADB0013449B880122194603F066
:10160000B7F8BB7D0133BB75BB7D022BECD9FB7AF0
:10161000DB08DBB21A46304B53F83200FB7ADB08AA
:10162000DBB22D4ADB0013449B880022194603F0ED
:101630009FF8052001F094FE284B1868274B9988E5
:10164000FB7A03F00103DBB21A4603F091F8234B57
:101650009868224B9989FB7A5B08DBB203F001039F
:10166000DBB21A4603F084F81C4B18691B4B998AAD
:10167000FB7A9B08DBB203F00103DBB21A4603F0EE
:1016800077F8052001F06CFEFB7ADB087B757B7D2B
:10169000022B0CD0022B0DDC002B02D0012B03D02F
:1016A00008E00423FB7506E00523FB7503E0062331
:1016B000FB7500E000BFFB7A9B007A68D418FB7DC5
:1016C0001946F86806F066F9F0EE407AC4ED007A43
:1016D00000BF1C37BD4690BD5001002038010020DE
:1016E00080B483B000AF0346FB71FB79303B262BFF
:1016F00054D801A252F823F0991700089517000852
:101700009D1700089D1700089D1700089D170008E9
:101710009D1700089D1700089D1700089D170008D9
:101720009D1700089D1700089D1700089D170008C9
:101730009D1700089D1700089D1700089D170008B9
:101740009D1700089D1700089D1700089D170008A9
:101750009D17000899170008951700089D170008A5
:101760009D1700089D170008991700089D1700088D
:101770009D1700089D1700089D1700089D17000879
:101780009D1700089D1700089D1700089D17000869
:1017900095170008012301E00023FFE718460C37E6
:1017A000BD465DF8047B704780B483B000AF03464C
:1017B000FB71FB79303B262B56D801A252F823F05F
:1017C000611800085D180008691800086918000809
:1017D00069180008691800086918000869180008E5
:1017E00069180008691800086918000869180008D5
:1017F00069180008691800086918000869180008C5
:1018000069180008691800086918000869180008B4
:101810006D180008691800086918000861180008A8
:101820006518000869180008691800086918000898
:101830006518000869180008691800086918000888
:101840006918000869180008691800086918000874
:10185000691800086D1800085D180008012306E0EB
:10186000002304E0022302E0022300E000BF184648
:101870000C37BD465DF8047B704700BF90B587B05C
:1018800000AF0346B9607A60FB73142202217868C6
:1018900008F061FDFB7B122B2CD10023FB750EE0C1
:1018A000FB7DBA6813441978FB7D7A68D418084622
:1018B000FFF77AFF03462370FB7D0133FB75FB7D49
:1018C000082BEDD90923BB7510E0BB7DBA68134422
:1018D0001A78BB7D023319467B685C181046FFF707
:1018E00063FF03462370BB7D0133BB75BB7D112BAA
:1018F000EBD95EE0FB7B102B2CD100237B750EE037
:101900007B7DBA68134419787B7D7A68D4180846C1
:10191000FFF74AFF034623707B7D01337B757B7D98
:10192000072BEDD908233B7510E03B7DBA681344C3
:101930001A783B7D043319467B685C181046FFF724
:1019400033FF034623703B7D01333B753B7D0F2BFB
:10195000EBD92EE0FB7B0E2B2BD10023FB740EE08A
:10196000FB7CBA6813441978FB7C7A68D418084663
:10197000FFF71AFF03462370FB7C0133FB74FB7CEB
:10198000062BEDD90723BB7410E0BB7CBA68134467
:101990001A78BB7C063319467B685C181046FFF743
:1019A00003FF03462370BB7C0133BB74BB7C0D2B50
:1019B000EBD900BF1C37BD4690BD80B485B000AFE9
:1019C00003463960FB710023FB7310E0FB793A6832
:1019D00013441B78552B05D0FB793A6813441B78C8
:1019E000442B01D1012307E0FB7B0133FB73FA7B1E
:1019F000FB799A42EAD3002318461437BD465DF8B6
:101A0000047B704790B587B000AF0346B9607A6039
:101A1000FB7314220221786808F09DFCFB7B102BDD
:101A200058D10023FB7522E0FB7DBA6813441B7874
:101A30003B743B7C552B05D1FB7D7A681344002217
:101A40001A7011E03B7C442B05D1FB7D7A6813446E
:101A500001221A7008E0FB7D7A68D4183B7C184696
:101A6000FFF7A2FE03462370FB7D0133FB75FB7D70
:101A7000072BD9D90823BB7528E0BB7DBA6813446E
:101A80001B787B747B7C552B07D1BB7D04331A46B6
:101A90007B68134400221A7015E07B7C442B07D12D
:101AA000BB7D04331A467B68134401221A700AE096
:101AB000BB7D04331A467B689C187B7C1846FFF775
:101AC00073FE03462370BB7D0133BB75BB7D0F2BBB
:101AD000D3D95AE0FB7B0E2B57D100237B7522E034
:101AE0007B7DBA6813441B78BB74BB7C552B05D136
:101AF0007B7D7A68134400221A7011E0BB7C442B72
:101B000005D17B7D7A68134401221A7008E07B7D41
:101B10007A68D418BB7C1846FFF746FE034623704C
:101B20007B7D01337B757B7D062BD9D907233B75E4
:101B300028E03B7DBA6813441B78FB74FB7C552B73
:101B400007D13B7D06331A467B68134400221A7086
:101B500015E0FB7C442B07D13B7D06331A467B689E
:101B6000134401221A700AE03B7D06331A467B6853
:101B70009C18FB7C1846FFF717FE034623703B7D3D
:101B800001333B753B7D0D2BD3D900BF1C37BD46C0
:101B900090BD90B587B000AF0346B9607A60FB7323
:101BA00014220221786808F0D6FBFB7B102B58D159
:101BB0000023FB7522E0FB7DBA6813441B783B745D
:101BC0003B7C552B05D1FB7D7A68134401221A70AA
:101BD00011E03B7C442B05D1FB7D7A681344002245
:101BE0001A7008E0FB7D7A68D4183B7C1846FFF732
:101BF000DBFD03462370FB7D0133FB75FB7D072B6B
:101C0000D9D90823BB7528E0BB7DBA6813441B787B
:101C10007B747B7C552B07D1BB7D04331A467B68D4
:101C2000134401221A7015E07B7C442B07D1BB7D45
:101C300004331A467B68134400221A700AE0BB7D05
:101C400004331A467B689C187B7C1846FFF7ACFD72
:101C500003462370BB7D0133BB75BB7D0F2BD3D9EE
:101C60005AE0FB7B0E2B57D100237B7522E07B7D56
:101C7000BA6813441B78BB74BB7C552B05D17B7DA4
:101C80007A68134401221A7011E0BB7C442B05D101
:101C90007B7D7A68134400221A7008E07B7D7A68A5
:101CA000D418BB7C1846FFF77FFD034623707B7D6D
:101CB00001337B757B7D062BD9D907233B7528E043
:101CC0003B7DBA6813441B78FB74FB7C552B07D112
:101CD0003B7D06331A467B68134401221A7015E0D7
:101CE000FB7C442B07D13B7D06331A467B681344AB
:101CF00000221A700AE03B7D06331A467B689C1866
:101D0000FB7C1846FFF750FD034623703B7D0133F3
:101D10003B753B7D0D2BD3D900BF1C37BD4690BD15
:101D200080B483B000AF78604FF06043D3F8803E5A
:101D300003F00103002B13D04FF06043D3F8003EB3
:101D400003F00103002B0BD000E000BF4FF0604315
:101D50001B68002BF9D04FF060437A68D2B21A703A
:101D60007B6818460C37BD465DF8047B7047000061
:101D7000B0B5ADF5906D02AF01F080FA00F02AFC2D
:101D800000F0B8FD00F08CFD00F010FD00F0E0FC6C
:101D900000F08AFC00F05AFD6422B549B54804F011
:101DA0006BFEB54804F026FBFFF73AF9B34B07F298
:101DB00054441D460FCD0FC42B682360B04B07F56C
:101DC00088641D460FCD0FC42B682360AD4B07F20E
:101DD0002C441D460FCD0FC42B68236007F22C4303
:101DE00014220221184608F0B6FA07F22C431846CE
:101DF000FFF766FAFFF7E6FA07F58363142201217D
:101E0000184608F0A8FA07F583631846FFF7A2FA08
:101E10009D4B00221A70002387F80234002387F8B4
:101E20000034002387F80434042387F801340023A6
:101E300087F80634012387F80334002387F8053434
:101E4000032387F8073407F58063C7F8143407F5D0
:101E5000816348228D49184605F076FD142387F8E2
:101E60006B34002387F87334FA230193884B009373
:101E7000FA23884A40F27241874806F049FB8748B6
:101E800001F06EFC0221854801F0C4FE7E4B1B78F8
:101E9000002BFBD0824B9B78022B00F0D982022BC7
:101EA00000F38983002B03D0012B00F0038182E330
:101EB0007B4B7C4A5A607A4B00221A70FFF7CEF8AF
:101EC00097F86B341A460121774808F044FA744BAE
:101ED0005B681846FFF7F4F9FFF750FA502006F058
:101EE000DDFB03461A466E4BC3F86022002387F8D9
:101EF000723438E06A4BD3F8602297F8721407F511
:101F000081631846FFF766FB654BD3F8602297F8AC
:101F100072349B001344D3ED007AB0EE007AF4EEF5
:101F2000C77AF1EE10FA0FD45D4BD3F8602297F820
:101F300072349B001344D3ED007A9FED5C7AF4EE8B
:101F4000C77AF1EE10FA09DD97F87234544A134457
:101F5000002283F87C22524B01221A7097F87234C7
:101F6000013387F8723497F87234132BC2D94C4B73
:101F7000D3F86032502219464D4808F0EAFA484B2F
:101F800093F88734122B1ED1092387F8713412E09D
:101F900097F871349A1C97F8713441490A4492F8C1
:101FA0007C123F4A13440A4683F87C2297F8713426
:101FB000013387F871343A4B93F8873497F87124DA
:101FC0009A42E5D346E0364B93F88734102B1ED166
:101FD000082387F8703412E097F870341A1D97F8C8
:101FE00070342F490A4492F87C122D4A13440A4651
:101FF00083F87C2297F87034013387F87034284BCB
:1020000093F8873497F870249A42E5D322E0244B62
:1020100093F887340E2B1DD1072387F86F3412E015
:1020200097F86F349A1D97F86F341D490A4492F857
:102030007C121B4A13440A4683F87C2297F86F34BB
:10204000013387F86F34164B93F8873497F86F2471
:102050009A42E5D3FFF7B6F9114B1B78002B03D05A
:102060000F4B02229A70A7E20D4B01229A70A3E255
:1020700010050020C8040020380400201CCE0008F1
:1020800030CE000844CE0008C40C0020E403002039
:10209000440600204007002004060020BC03002066
:1020A0003C08002068010020B80A00203333334088
:1020B000B405002007F58F63A3F2744318464FF46C
:1020C000FA731A46002108F046F9002387F86A34AB
:1020D0004FF496720021C34808F03DF94FF4967210
:1020E0000021C14808F037F9C04B93F886341A46EE
:1020F00097F86B3402FB03F3184606F0CFFA034659
:102100001A46BA4B5A60B94B5868B84B93F88634A4
:102110001A4697F86B3402FB03F31A46002108F0C5
:102120001AF9B24BB3F884341A463B1DB04918462D
:1021300008F00FFA002387F873343B1DAD491846A9
:1021400008F024F9C7F87404A84B93F88734D7F83B
:1021500074141846FFF731FC034687F86A3444E0EC
:1021600097F86A34002B24D0A04B93F8870497F893
:102170006B3497F8732402FB03F308339B4A134430
:102180001A46D7F87414FFF73DFC984B93F8870470
:1021900097F86B3497F8732402FB03F303F59873F5
:1021A000924A134404331A46D7F87414FFF7F1FC2B
:1021B00010E08E4B93F887048C4B5B6897F86B2488
:1021C00097F8731401FB02F213441A46D7F87414FB
:1021D000FFF754FB97F87334013387F8733485495C
:1021E000002008F0D3F8C7F87404D7F87434002B33
:1021F000B6D1FFF7E7F87D4B93F886341A467B4B50
:1022000093F8873402FB03F3184606F047FA0346B7
:102210001A46764BC3F86422744BD3F86432734A7F
:1022200092F886241146714A92F8872401FB02F243
:102230000021184608F08FF8002387F873345EE019
:10224000FEF70CFF97F86A34002B1ED097F86B341A
:1022500097F8732402FB03F31A46624B13441846A3
:10226000FFF72EF80A2001F07BF897F86B3497F807
:10227000732402FB03F31A465B4B13441846FFF723
:102280001FF80A2001F06CF821E0584B5B6897F8C2
:102290006B2497F8731401FB02F213441846FFF7FE
:1022A0000FF8524B5B6897F86B2497F8731401FB97
:1022B00002F2134407F57B741D4628686968AA6812
:1022C000EB680FC4286920600A2001F049F8474BE9
:1022D000D3F86432454A92F88724114697F873245C
:1022E00001FB02F21344414A92F887241146184632
:1022F000FFF78CF897F87334013387F873343B4B4E
:1023000093F8863497F873249A4299D3374BD3F8CD
:102310006412364B93F887341A46344B93F886345C
:1023200002FB03F31A4607F5FC73184608F011F98F
:1023300014220021304808F00EF82C4B93F8863414
:102340001A4601212C4808F006F8002387F8733458
:10235000264BB3F884341A463B1D2549184608F02D
:10236000F8F83B1D2349184608F010F8C7F8740424
:102370005CE0002387F86E3446E097F86E34D7F8B7
:10238000742413441B78552B38D097F86E34D7F843
:10239000742413441B78442B30D097F86E34D7F84C
:1023A000742413441B781846FFF79AF9034618461D
:1023B00097F86E2497F873340C4991F8871401FB51
:1023C00003F3134407F58F62A2F52072D35C9842A1
:1023D00015D097F87334054A1344002283F8682215
:1023E00019E000BF44080020700900203C080020CC
:1023F000CC0A002018CE0008A40A002000BF97F8DD
:102400006E34013387F86E346C4B93F8873497F849
:102410006E249A42B1D397F87334013387F873343A
:102420006749002007F0B2FFC7F87404D7F8743486
:10243000002B9ED1614B93F886341A4607F57B73C7
:102440006049184608F085F85C4B02229A70B3E0A8
:102450003B1D4FF4FA720021184607F07CFF574BE2
:102460001B781A4607F58F63A3F274431A70534B17
:1024700093F887341A463B1D02335349184608F037
:1024800068F84E4B93F8873403333A1D13444B4A94
:10249000D2F86412494A92F886241046474A92F8C4
:1024A000872400FB02F2184608F053F8434B93F8D8
:1024B00087345A1D414B93F8863419463F4B93F8A5
:1024C000873401FB03F313443A1D13443B4A92F84B
:1024D00086243C49184608F03CF80023A7F86C34E1
:1024E00014E0B7F86C3407F58F62A2F27442D25C44
:1024F000B7F86C343032D1B207F58F62A2F2744271
:10250000D154B7F86C340133A7F86C34B7F86C24A5
:102510002A4B93F88734991D284B93F88634184634
:10252000264B93F8873400FB03F30B44234991F8BF
:1025300086140B449A42D4DB07F58F63A3F27443ED
:1025400000225A701D4B93F88734023307F58F62CF
:10255000A2F274420021D154184B93F887341A1D0B
:10256000164B93F886341946144B93F8873401FBC5
:1025700003F3134407F58F62A2F274420021D15491
:102580000E4B93F8863401339BB20C4A92F88724A1
:1025900013FB02F39BB2094A92F8862413449BB2C0
:1025A00004339AB23B1D1946084805F0A5FD084BB7
:1025B00000221A7000E000BF68E400BF3C08002061
:1025C00018CE0008A40A0020B80A00200406002043
:1025D000C40C002080B594B000AF07F12003302276
:1025E0000021184607F0B7FE07F10C0300221A601D
:1025F0005A609A60DA601A610023BB60284B1B6C3A
:10260000274A43F080531364254B1B6C03F080531F
:10261000BB60BB6800237B60224B1B68214A43F4EC
:10262000804313601F4B1B6803F480437B607B680F
:1026300002233B620123FB6210233B630223BB6343
:102640000023FB6308233B6448237B640223BB64B1
:102650000423FB6407F12003184603F0E5F9034661
:10266000002B01D000F03EFB0F23FB6002233B61F7
:1026700000237B614FF48053BB614FF48053FB61B7
:1026800007F10C030221184603F046FC0346002B19
:1026900001D000F027FB00BF5037BD4680BD00BF12
:1026A000003802400070004080B58AB000AF264B71
:1026B000264A1A60244B04225A60234B00229A6057
:1026C000214B0022DA60204B4FF460221A611E4B2E
:1026D0004FF480125A611C4B00221A761A4B0022CA
:1026E0005A76194B00229A76174B0022DA76164B4F
:1026F00000221A77144B00225A77134800F054FE38
:102700000346002B01D000F0EDFA01233B621223B7
:102710007B6100233B614FF419533B6000237B60D6
:102720004FF41953BB600023FB600023BB610123FE
:10273000FB6114237B623B461946034800F030FFDF
:1027400000BF2837BD4680BDBC03002000640040A8
:1027500080B500AF124B134A1A60114B124A5A60EF
:102760000F4B00229A600E4B0022DA600C4B4FF4A4
:1027700080421A610A4B00225A61094B00229A6179
:10278000074B0022DA61064B00221A62044802F06D
:1027900009F80346002B01D000F0A4FA00BF80BD69
:1027A000E403002000540040400D030080B586B0D3
:1027B00000AF07F1080300221A605A609A60DA60DD
:1027C0003B4600221A605A601E4B1F4A1A601D4B7E
:1027D000A7225A601B4B00229A601A4B4FF6FE72DA
:1027E000DA60184B00221A61164B00225A61154B11
:1027F00000229A61134803F0ADFD0346002B01D07F
:1028000000F070FA4FF48053BB6007F108031946DB
:102810000C4803F057FE0346002B01D000F062FA8B
:1028200000233B6000237B603B461946054804F0CB
:1028300057F80346002B01D000F054FA00BF1837B8
:10284000BD4680BD380400200000014080B500AFC7
:10285000114B124A1A60104B4FF4E1325A600E4B82
:1028600000229A600C4B0022DA600B4B00221A61A6
:10287000094B0C225A61084B00229A61064B002238
:10288000DA61054804F0A8F80346002B01D000F0F7
:1028900029FA00BF80BD00BF800400200010014065
:1028A00080B500AF114B124A1A60104B4FF4E12271
:1028B0005A600E4B00229A600C4B0022DA600B4BE0
:1028C00000221A61094B0C225A61084B00229A61BE
:1028D000064B0022DA61054804F07EF80346002B1F
:1028E00001D000F0FFF900BF80BD00BFC804002088
:1028F0000044004080B58CB000AF07F11C030022FB
:102900001A605A609A60DA601A610023BB616B4BEF
:102910001B6B6A4A43F080031363684B1B6B03F025
:102920008003BB61BB6900237B61644B1B6B634A03
:1029300043F001031363614B1B6B03F001037B61E5
:102940007B6900233B615D4B1B6B5C4A43F00403D6
:1029500013635A4B1B6B03F004033B613B69002379
:10296000FB60564B1B6B554A43F002031363534BFA
:102970001B6B03F00203FB60FB680023BB604F4B43
:102980001B6B4E4A43F0100313634C4B1B6B03F05D
:102990001003BB60BB6800237B60484B1B6B474A3E
:1029A00043F008031363454B1B6B03F008037B6084
:1029B0007B6800224FF4F071414801F0D9FE0022FB
:1029C00041F6F0713F4801F0D3FE002243F63B018F
:1029D0003D4801F0CDFE00224FF4FF413B4801F09D
:1029E000C7FE0022F7213A4801F0C2FE4FF4F0730F
:1029F000FB6101233B6200237B620023BB6207F182
:102A00001C0319462E4801F0FFFC41F6F073FB61F0
:102A100001233B6200237B620023BB6207F11C039E
:102A20001946284801F0F0FC43F63B03FB61012303
:102A30003B6200237B620023BB6207F11C03194643
:102A4000214801F0E1FC4FF4FF43FB6101233B62AD
:102A500000237B620023BB6207F11C0319461B485D
:102A600001F0D2FC4FF44043FB6100233B620023A2
:102A70007B6207F11C031946134801F0C5FC4FF4B3
:102A80007C53FB6100233B6200237B6207F11C0344
:102A900019460F4801F0B8FCF723FB6101233B62A4
:102AA00000237B620023BB6207F11C031946084820
:102AB00001F0AAFC00BF3037BD4680BD003802409F
:102AC00000000240000802400004024000100240E2
:102AD000000C024080B582B000AF78600B467B806E
:102AE0007B681A680A4B1B689A420CD1094804F0AB
:102AF0001DFF64220021074807F02DFC64220549D0
:102B0000034803F0B9FF00BF0837BD4680BD00BFD2
:102B1000C80400201005002080B5ADF5007D00AF91
:102B200007F50073A3F5FE7318602F4B2F4A0021A1
:102B30002F4800F04DFF07F50073A3F5FB7300224B
:102B40001A802A4B1B69DBB21A462749294805F02F
:102B500061FB284805F003FD264B93F83C30022B1F
:102B60003CD107F10A0307F10C014FF4FA72214836
:102B700005F0A2FC4FF4FA7200211F4807F0EBFBAE
:102B800007F50073A3F5FA731A781C4B83F88724B2
:102B900007F50073A3F5FA739A78184B83F8862427
:102BA00007F50073A3F5FB731B88043B1A4607F176
:102BB0000C0304331946104807F0CBFC07F50073EB
:102BC000A3F5FB731B88043B9AB20C4BA3F8842437
:102BD0000A4B00229A700A4B01221A7000BF07F5B7
:102BE0000077BD4680BD00BFA80500208C050020F1
:102BF000BC03002004060020CC0A00203C08002072
:102C0000C40C002080B586B000AFF860B9607A606F
:102C100000237B6109E07B69BA6813441B7818467E
:102C2000FFF77EF87B6901337B617A697B689A42A2
:102C3000F1DB7B6818461837BD4680BD80B483B091
:102C400000AF0346FB80094B1B6800225A6200BF9D
:102C5000064B1B685A6AFB889A42F9D300BF00BF33
:102C60000C37BD465DF8047B704700BF3804002078
:102C700080B584B000AFF860B9601346FB71FB7992
:102C80000D4A13610C4AFB6813600B4B00229A60DB
:102C9000094B0022DA60094BBA680749084800F07E
:102CA000A3FD0346002B01D1002301E04FF0FF33C9
:102CB00018461037BD4680BD74050020B0050020C1
:102CC000BC03002080B500AF00F03EFB0346184671
:102CD00080BD0FB480B400AF00BFBD465DF8047B7B
:102CE00004B0704780B400AF72B600BF00BFFDE70C
:102CF00080B483B000AF00237B60104B5B6C0F4A45
:102D000043F4804353640D4B5B6C03F480437B605E
:102D10007B6800233B60094B1B6C084A43F08053DF
:102D20001364064B1B6C03F080533B603B6800BF91
:102D30000C37BD465DF8047B704700BF0038024089
:102D400080B58AB000AF786007F1140300221A60E2
:102D50005A609A60DA601A617B681B68254A934260
:102D600044D100233B61244B1B6C234A43F0007386
:102D70001364214B1B6C03F000733B613B69002320
:102D8000FB601D4B1B6B1C4A43F0010313631A4B82
:102D90001B6B03F00103FB60FB684FF4C0537B61C6
:102DA0000223BB610023FB6103233B6209237B6297
:102DB00007F114031946114801F026FB00220021F7
:102DC000132001F058FA132001F071FA00220021BB
:102DD000142001F050FA142001F069FA00220021B9
:102DE000152001F048FA152001F061FA00BF2837DC
:102DF000BD4680BD00640040003802400000024033
:102E000080B58AB000AF786007F1140300221A6021
:102E10005A609A60DA601A617B681B68194A9342AB
:102E20002BD100233B61184B1B6B174A43F0020365
:102E30001363154B1B6B03F002033B613B69C0231B
:102E40007B611223BB610023FB6103233B620423EC
:102E50007B6207F1140319460C4801F0D5FA0023F0
:102E6000FB60094B1B6C084A43F400131364064BC8
:102E70001B6C03F40013FB60FB6800BF2837BD46E2
:102E800080BD00BF005400400038024000040240F2
:102E900080B485B000AF78607B681B680B4A9342B2
:102EA0000DD10023FB600A4B5B6C094A43F0010320
:102EB0005364074B5B6C03F00103FB60FB6800BFCE
:102EC0001437BD465DF8047B704700BF0000014029
:102ED0000038024080B58CB000AF786007F11C0369
:102EE00000221A605A609A60DA601A617B681B6877
:102EF000364A93422DD10023BB61354B5B6C344A7B
:102F000043F010035364324B5B6C03F01003BB615E
:102F1000BB6900237B612E4B1B6B2D4A43F00103E1
:102F200013632B4B1B6B03F001037B617B694FF435
:102F3000C063FB6102233B6200237B620323BB620D
:102F40000723FB6207F11C031946224801F05CFAD3
:102F500038E07B681B68204A934233D100233B61F1
:102F60001B4B1B6C1A4A43F400331364184B1B6C45
:102F700003F400333B613B690023FB60144B1B6B84
:102F8000134A43F001031363114B1B6B03F001035E
:102F9000FB60FB680C23FB6102233B6200237B6226
:102FA0000323BB620723FB6207F11C031946094890
:102FB00001F02AFA00220021262001F05CF92620E7
:102FC00001F075F900BF3037BD4680BD00100140EB
:102FD00000380240000002400044004080B400AFCE
:102FE00000BFFDE780B400AF00BFFDE780B400AFD5
:102FF00000BFFDE780B400AF00BFFDE780B400AFC5
:1030000000BFFDE780B400AF00BFBD465DF8047BA4
:10301000704780B400AF00BFBD465DF8047B7047C9
:1030200080B400AF00BFBD465DF8047B7047000070
:1030300080B500AF00F074F9064B1B6819460648CE
:1030400000F0A2FC0346002B02D1044805F087FAE9
:1030500000BF80BDB0050020BC0300200406002096
:1030600080B500AF024800F0FBFD00BF80BD00BF8F
:10307000BC03002080B500AF024800F0F1FD00BFA6
:1030800080BD00BFBC03002080B500AF024800F047
:10309000E7FD00BF80BD00BFBC03002080B500AFCE
:1030A000024803F047FD00BF80BD00BFC8040020F8
:1030B00080B400AF01231846BD465DF8047B70471D
:1030C00080B582B000AF7860396007F015FA03462A
:1030D00016221A604FF0FF3318460837BD4680BDF0
:1030E00080B582B000AF78604FF0FF317868FFF7AD
:1030F000E7FF00BFFDE780B586B000AFF860B960BC
:103100007A6000237B610AE0AFF300800146BB6870
:103110005A1CBA60CAB21A707B6901337B617A6942
:103120007B689A42F0DB7B6818461837BD4680BD45
:1031300080B483B000AF78604FF0FF3318460C378F
:10314000BD465DF8047B704780B483B000AF786003
:1031500039603B684FF400525A60002318460C3720
:10316000BD465DF8047B704780B483B000AF7860E3
:10317000012318460C37BD465DF8047B704780B4C8
:1031800085B000AFF860B9607A6000231846143744
:10319000BD465DF8047B704780B586B000AF7860AF
:1031A000144A154BD31A7B617B693B61134B1B6837
:1031B000002B02D1114B124A1A60104B1A687B681F
:1031C00013443A699A4207D207F096F903460C2253
:1031D0001A604FF0FF3309E0084B1B68FB60074B98
:1031E0001A687B681344054A1360FB681846183751
:1031F000BD4680BD0000022000040000C80C002075
:10320000E80E002080B400AF064BD3F88830054AA2
:1032100043F47003C2F8883000BFBD465DF8047BFC
:10322000704700BF00ED00E0DFF834D0FFF7EAFFA1
:103230000C480D490D4A002302E0D458C450043311
:10324000C4188C42F9D30A4A0A4C002301E01360E7
:103250000432A242FBD307F055F9FEF789FD70470F
:1032600000000220000000205003002054D5000878
:1032700050030020E40E0020FEE7000080B500AF00
:103280000E4B1B680D4A43F4007313600B4B1B6815
:103290000A4A43F480631360084B1B68074A43F4EF
:1032A00080731360032000F0DBFF0F2000F008F8AC
:1032B000FFF71EFD0023184680BD00BF003C024002
:1032C00080B582B000AF7860124B1A68124B1B7841
:1032D00019464FF47A73B3FBF1F3B2FBF3F31846DC
:1032E00000F0F3FF0346002B01D001230EE07B68C2
:1032F0000F2B0AD8002279684FF0FF3000F0BBFF97
:10330000064A7B681360002300E001231846083753
:10331000BD4680BD7C01002084010020800100208A
:1033200080B400AF064B1B781A46064B1B6813444B
:10333000044A136000BFBD465DF8047B704700BFC0
:1033400084010020CC0C002080B400AF034B1B682C
:103350001846BD465DF8047B704700BFCC0C0020CA
:1033600080B584B000AF7860FFF7EEFFB8607B688F
:10337000FB60FB68B3F1FF3F05D00A4B1B781A4690
:10338000FB681344FB6000BFFFF7DEFF0246BB682B
:10339000D31AFA689A42F7D800BF00BF1037BD466B
:1033A00080BD00BF8401002080B584B000AF78608C
:1033B0007B68002B01D10123EDE07B6893F820307E
:1033C000DBB2002B02D17868FFF7BAFC7B681B6880
:1033D0001A687B681B6842F001021A60FFF7B4FFAD
:1033E000F86012E0FFF7B0FF0246FB68D31A0A2B21
:1033F0000BD97B685B6A43F400327B685A627B6856
:10340000052283F820200123C5E07B681B685B68E8
:1034100003F00103002BE5D07B681B681A687B680A
:103420001B6822F002021A60FFF78EFFF86012E0BC
:10343000FFF78AFF0246FB68D31A0A2B0BD97B6879
:103440005B6A43F400327B685A627B68052283F82A
:10345000202001239FE07B681B685B6803F0020368
:10346000002BE5D17B681B7E012B08D17B681B6894
:103470001A687B681B6842F080021A6007E07B686C
:103480001B681A687B681B6822F080021A607B68E0
:103490005B7E012B08D17B681B681A687B681B6800
:1034A00042F040021A6007E07B681B681A687B687C
:1034B0001B6822F040021A607B689B7E012B08D1BA
:1034C0007B681B681A687B681B6842F020021A60E0
:1034D00007E07B681B681A687B681B6822F0200283
:1034E0001A607B68DB7E012B08D17B681B681A6839
:1034F0007B681B6822F010021A6007E07B681B687B
:103500001A687B681B6842F010021A607B681B7F98
:10351000012B08D17B681B681A687B681B6842F026
:1035200008021A6007E07B681B681A687B681B68E2
:1035300022F008021A607B685B7F012B08D17B6850
:103540001B681A687B681B6842F004021A6007E077
:103550007B681B681A687B681B6822F004021A608B
:103560007B689A687B68DB681A437B681B691A432F
:103570007B685B6942EA03017B685B685A1E7B6873
:103580001B680A43DA617B6800225A627B68012269
:1035900083F82020002318461037BD4680BD000068
:1035A00080B487B000AF786039607B681B687B614E
:1035B0007B6893F82030FB74FB7C012B03D0FB7CF1
:1035C000022B40F0BE80654B7B617B69D3F80032F3
:1035D00043F001027B69C3F800227B69D3F8003213
:1035E00023F47C527B69C3F800227B69D3F8002264
:1035F0003B685B6A1B021A437B69C3F800223B6885
:103600005B6903F01F03012202FA03F3FB607B698D
:10361000D3F81C22FB68DB431A407B69C3F81C22E9
:103620003B68DB69002B23D17B69D3F80C22FB6854
:10363000DB431A407B69C3F80C223B68DB68190442
:103640003B685B689BB23A68526919437B694832B0
:1036500043F832103B689B6819043B681B689AB2B8
:103660003B685B690A4379694833DB000B445A6065
:103670003B68DB69012B22D17B69D3F80C22FB6804
:103680001A437B69C3F80C223B681B6819043B682A
:103690005B689BB23A68526919437B69483243F8C8
:1036A00032103B689B6819043B68DB689AB23B6840
:1036B0005B690A4379694833DB000B445A603B6815
:1036C0009B69002B09D17B69D3F80422FB68DB439B
:1036D0001A407B69C3F8042207E07B69D3F804220F
:1036E000FB681A437B69C3F804223B681B69002B03
:1036F00009D17B69D3F81422FB68DB431A407B694C
:10370000C3F8142207E07B69D3F81422FB681A433C
:103710007B69C3F814223B681B6A012B07D17B69C4
:10372000D3F81C22FB681A437B69C3F81C227B690F
:10373000D3F8003223F001027B69C3F80022002392
:1037400006E07B685B6A43F480227B685A6201234F
:1037500018461C37BD465DF8047B70470064004086
:1037600080B584B000AF78607B6893F82030DBB21E
:10377000012B2ED17B68022283F820207B681B68F6
:103780001A687B681B6822F001021A60FFF7DCFDF3
:10379000F86012E0FFF7D8FD0246FB68D31A0A2B47
:1037A0000BD97B685B6A43F400327B685A627B68A2
:1037B000052283F82020012312E07B681B685B68E8
:1037C00003F00103002BE5D17B6800225A6200233D
:1037D00006E07B685B6A43F400227B685A6201233F
:1037E00018461037BD4680BD80B489B000AFF86080
:1037F000B9607A603B60FB6893F82030FB77FB6828
:103800001B689B68BB61FB7F012B03D0FB7F022BF6
:1038100040F0AD80BB6903F08063002B0AD1BB6927
:1038200003F00063002B05D1BB6903F08053002B2C
:1038300000F09580BB691B0E03F003037B6101223E
:103840007B699A403B681A60BB689B68002B0DD16E
:10385000BB681B685A05BB68DB68F96809681A43CE
:103860007B6918331B010B441A600FE0BB685B686F
:10387000DA00BB689B681A43BB68DB68F9680968B3
:103880001A437B6918331B010B441A60FB681968E3
:10389000BB681A697B6918331B010B4404331A6037
:1038A000BB681B7D012B11D1FB681A687B6918333B
:1038B0001B01134404331B68FA68116843F48072D7
:1038C0007B6918331B010B4404331A607B68073390
:1038D0001B781A067B6806331B781B041A437B6827
:1038E00005331B781B0213437A68043212781046A2
:1038F000FA68116843EA00027B691B010B4403F577
:10390000C6731A607B6803331B781A067B68023320
:103910001B781B041A437B6801331B781B0213437B
:103920007A6812781046FA68116843EA00027B69E7
:103930001B010B4403F5C4731A60FB681A687B69AA
:1039400018331B0113441B68FA68116843F0010225
:103950007B6918331B010B441A6000230EE0FB68DF
:103960005B6A43F40012FB685A62012306E0FB68BD
:103970005B6A43F48022FB685A62012318462437AD
:10398000BD465DF8047B704780B485B000AF7860B9
:1039900039600023FB607B6893F82030FB72FB7A70
:1039A000012B02D0FB7A022B0BD17B681B689A6833
:1039B0003B689B061A403B689B069A4201D0012354
:1039C000FB60FB6818461437BD465DF8047B704702
:1039D00080B487B000AFF860B9607A603B60FB6884
:1039E00093F82030FB75FB7D012B03D0FB7D022B70
:1039F00040F00381BB68002B0ED1FB681B68DB68BD
:103A000003F00303002B16D1FB685B6A43F400123A
:103A1000FB685A620123F7E0FB681B681B6903F02F
:103A20000303002B07D1FB685B6A43F40012FB68B9
:103A30005A620123E8E0FB681A68BB681B331B016C
:103A400013441B6803F004027B689A607B689B68E0
:103A5000002B0CD1FB681A68BB681B331B01134495
:103A60001B685B0DC3F30A027B681A600BE0FB68FE
:103A70001A68BB681B331B0113441B68DB0823F067
:103A800060427B685A60FB681A68BB681B331B0185
:103A900013441B6803F002027B68DA60FB681A6853
:103AA000BB681B331B01134404331B6803F008037A
:103AB000002B03D07B6808221A610BE0FB681A68B0
:103AC000BB681B331B01134404331B6803F00F0254
:103AD0007B681A61FB681A68BB681B331B011344BF
:103AE00004331B681B0ADAB27B689A61FB681A68A8
:103AF000BB681B331B01134404331B681B0C9AB2B5
:103B00007B685A61FB681A68BB681B01134403F5A4
:103B1000DC731B68DAB23B681A70FB681A68BB6812
:103B20001B01134403F5DC731B681A0A3B6801335D
:103B3000D2B21A70FB681A68BB681B01134403F504
:103B4000DC731B681A0C3B680233D2B21A70FB6834
:103B50001A68BB681B01134403F5DC731B681A0E5B
:103B60003B680333D2B21A70FB681A68BB681B014A
:103B7000134403F5DE731A683B680433D2B21A703B
:103B8000FB681A68BB681B01134403F5DE731B68EE
:103B90001A0A3B680533D2B21A70FB681A68BB6810
:103BA0001B01134403F5DE731B681A0C3B680633D4
:103BB000D2B21A70FB681A68BB681B01134403F584
:103BC000DE731B681A0E3B680733D2B21A70BB68EB
:103BD000002B08D1FB681B68DA68FB681B6842F0A1
:103BE0002002DA6007E0FB681B681A69FB681B6843
:103BF00042F020021A61002306E0FB685B6A43F48E
:103C00008022FB685A62012318461C37BD465DF8C6
:103C1000047B704780B485B000AF786039607B6802
:103C200093F82030FB73FB7B012B02D0FB7B022B34
:103C300009D17B681B6859697B681B683A680A432D
:103C40005A61002306E07B685B6A43F480227B684C
:103C50005A62012318461437BD465DF8047B70474D
:103C600080B58AB000AF786000237B627B681B68F8
:103C70005B693B627B681B685B68FB617B681B68F8
:103C80009B68BB617B681B68DB687B617B681B682A
:103C90001B693B617B681B689B69FB603B6A03F0A7
:103CA0000103002B7CD0BB6903F00103002B23D060
:103CB0007B681B6801229A60BB6903F00203002B3A
:103CC00003D0786800F083F916E0BB6903F00403C1
:103CD000002B04D07B6A43F400637B620CE0BB6979
:103CE00003F00803002B04D07B6A43F480537B620B
:103CF00002E0786800F089F9BB6903F48073002B57
:103D000024D07B681B684FF480729A60BB6903F40F
:103D10000073002B03D0786800F063F916E0BB69EC
:103D200003F48063002B04D07B6A43F400537B626E
:103D30000CE0BB6903F40063002B04D07B6A43F4FE
:103D400080437B6202E0786800F069F9BB6903F4A4
:103D50008033002B24D07B681B684FF480329A603C
:103D6000BB6903F40033002B03D0786800F043F9FB
:103D700016E0BB6903F48023002B04D07B6A43F474
:103D800000437B620CE0BB6903F40023002B04D0EA
:103D90007B6A43F480337B6202E0786800F049F983
:103DA0003B6A03F00803002B0CD07B6903F010037F
:103DB000002B07D07B6A43F400737B627B681B682F
:103DC0001022DA603B6A03F00403002B0BD07B69FE
:103DD00003F00803002B06D07B681B680822DA601A
:103DE000786800F030F93B6A03F00203002B09D039
:103DF0007B681B68DB6803F00303002B02D0786844
:103E0000FEF78AFE3B6A03F04003002B0CD03B69AF
:103E100003F01003002B07D07B6A43F480637B62BE
:103E20007B681B6810221A613B6A03F02003002B99
:103E30000BD03B6903F00803002B06D07B681B689E
:103E400008221A61786800F012F93B6A03F0100347
:103E5000002B09D07B681B681B6903F00303002B50
:103E600002D0786800F0F9F83B6A03F40033002BC5
:103E70000BD0FB6903F01003002B06D07B681B6896
:103E800010225A60786800F0FCF83B6A03F4803333
:103E9000002B0BD0FB6903F00803002B06D07B68D6
:103EA0001B6808225A60786800F0F5F83B6A03F452
:103EB0000043002B7BD0FB6903F00403002B72D07E
:103EC0003B6A03F48073002B08D0FB6803F0010306
:103ED000002B03D07B6A43F001037B623B6A03F44F
:103EE0000073002B08D0FB6803F00203002B03D003
:103EF0007B6A43F002037B623B6A03F48063002B1E
:103F000008D0FB6803F00403002B03D07B6A43F066
:103F100004037B623B6A03F40063002B43D0FB681D
:103F200003F07003002B3ED0FB6803F07003602B9E
:103F30002BD0602B2ED8502B22D0502B2AD8402BA0
:103F400019D0402B26D8302B10D0302B22D8102B54
:103F500002D0202B05D01DE07B6A43F008037B6272
:103F600019E07B6A43F010037B6214E07B6A43F044
:103F700020037B620FE07B6A43F040037B620AE030
:103F80007B6A43F080037B6205E07B6A43F48073C5
:103F90007B6200E000BF7B681B689A697B681B68D6
:103FA00022F070029A617B681B6804225A607B6A67
:103FB000002B08D07B685A6A7B6A1A437B685A6276
:103FC000786800F072F800BF2837BD4680BD80B425
:103FD00083B000AF786000BF0C37BD465DF8047B4E
:103FE000704780B483B000AF786000BF0C37BD4627
:103FF0005DF8047B704780B483B000AF786000BF89
:104000000C37BD465DF8047B704780B483B000AFC9
:10401000786000BF0C37BD465DF8047B704780B404
:1040200083B000AF786000BF0C37BD465DF8047BFD
:10403000704780B483B000AF786000BF0C37BD46D6
:104040005DF8047B704780B483B000AF786000BF38
:104050000C37BD465DF8047B704780B483B000AF79
:10406000786000BF0C37BD465DF8047B704780B4B4
:1040700083B000AF786000BF0C37BD465DF8047BAD
:10408000704780B483B000AF786000BF0C37BD4686
:104090005DF8047B704780B483B000AF786000BFE8
:1040A0000C37BD465DF8047B704780B483B000AF29
:1040B000786000BF0C37BD465DF8047B7047000098
:1040C00080B485B000AF78607B6803F00703FB60C5
:1040D0000C4BDB68BB60BA684FF6FF031340BB6054
:1040E000FB681A02BB68134343F0BF6343F4003319
:1040F000BB60044ABB68D36000BF1437BD465DF89F
:10410000047B704700ED00E080B400AF044BDB6837
:104110001B0A03F007031846BD465DF8047B704791
:1041200000ED00E080B483B000AF0346FB7197F967
:104130000730002B0BDBFB7903F01F02074997F9CF
:1041400007305B09012000FA02F241F8232000BF8A
:104150000C37BD465DF8047B704700BF00E100E00E
:1041600080B483B000AF03463960FB7197F9073024
:10417000002B0ADB3B68DAB20C4997F907301201D1
:10418000D2B20B4483F800230AE03B68DAB2084954
:10419000FB7903F00F03043B1201D2B20B441A76F1
:1041A00000BF0C37BD465DF8047B704700E100E0BE
:1041B00000ED00E080B489B000AFF860B9607A60CB
:1041C000FB6803F00703FB61FB69C3F10703042BE2
:1041D00028BF0423BB61FB690433062B02D9FB69AA
:1041E000033B00E000237B614FF0FF32BB6902FA22
:1041F00003F3DA43BB681A407B699A404FF0FF3102
:104200007B6901FA03F3D9437B680B4013431846DB
:104210002437BD465DF8047B7047000080B582B04E
:1042200000AF78607B68013BB3F1807F01D301234D
:104230000FE00A4A7B68013B53600F214FF0FF30CB
:10424000FFF78EFF054B00229A60044B07221A608D
:10425000002318460837BD4680BD00BF10E000E0CF
:1042600080B582B000AF78607868FFF729FF00BFA3
:104270000837BD4680BD80B586B000AF0346B96043
:104280007A60FB7300237B61FFF73EFF78617A68F9
:10429000B9687869FFF78EFF024697F90F3011462B
:1042A0001846FFF75DFF00BF1837BD4680BD80B5DB
:1042B00082B000AF0346FB7197F907301846FFF74D
:1042C00031FF00BF0837BD4680BD80B582B000AF6A
:1042D00078607868FFF7A2FF034618460837BD46A6
:1042E00080BD80B584B000AF78607B689B6DFB605B
:1042F000FFF72AF8B8607B6893F83530DBB2022B01
:1043000008D07B6880225A657B68002283F83420BD
:10431000012352E07B681B681A687B681B6822F0E7
:1043200016021A607B681B685A697B681B6822F05A
:1043300080025A617B681B6C002B03D17B689B6CED
:10434000002B07D07B681B681A687B681B6822F00B
:1043500008021A607B681B681A687B681B6822F079
:1043600001021A6013E0FEF7EFFF0246BB68D31AA2
:10437000052B0CD97B6820225A657B68032283F8C1
:1043800035207B68002283F83420032315E07B6806
:104390001B681B6803F00103002BE4D17B68DB6D15
:1043A0003F229A40FB689A607B68012283F835209F
:1043B0007B68002283F83420002318461037BD465E
:1043C00080BD80B483B000AF78607B6893F83530EF
:1043D000DBB2022B04D07B6880225A6501230CE0FB
:1043E0007B68052283F835207B681B681A687B6828
:1043F0001B6822F001021A60002318460C37BD46E4
:104400005DF8047B7047000080B489B000AF78602D
:10441000396000237B6100233B610023BB610023E3
:10442000FB616BE10122FB6902FA03F37B613B68EC
:104430001B687A6913403B613A697B699A4240F094
:104440005A813B685B6803F00303012B05D03B688E
:104450005B6803F00303022B30D17B689B68BB6170
:10446000FB695B00032202FA03F3DB43BA691340E2
:10447000BB613B68DA68FB695B0002FA03F3BA6967
:104480001343BB617B68BA699A607B685B68BB61F8
:104490000122FB6902FA03F3DB43BA691340BB61F3
:1044A0003B685B681B0903F00102FB6902FA03F336
:1044B000BA691343BB617B68BA695A603B685B6841
:1044C00003F00303032B17D07B68DB68BB61FB6938
:1044D0005B00032202FA03F3DB43BA691340BB61BA
:1044E0003B689A68FB695B0002FA03F3BA691343FD
:1044F000BB617B68BA69DA603B685B6803F0030301
:10450000022B23D1FB69DA087B68083253F822308A
:10451000BB61FB6903F007039B000F2202FA03F360
:10452000DB43BA691340BB613B681A69FB6903F05E
:1045300007039B0002FA03F3BA691343BB61FB69EB
:10454000DA087B680832B96943F822107B681B6877
:10455000BB61FB695B00032202FA03F3DB43BA6928
:104560001340BB613B685B6803F00302FB695B00BF
:1045700002FA03F3BA691343BB617B68BA691A6034
:104580003B685B6803F44033002B00F0B4800023E9
:10459000FB60604B5B6C5F4A43F4804353645D4B4C
:1045A0005B6C03F48043FB60FB685B4AFB699B0820
:1045B000023352F82330BB61FB6903F003039B0015
:1045C0000F2202FA03F3DB43BA691340BB617B6835
:1045D000524A93422BD07B68514A934225D07B6844
:1045E000504A93421FD07B684F4A934219D07B6850
:1045F0004E4A934213D07B684D4A93420DD07B685C
:104600004C4A934207D07B684B4A934201D107231F
:104610000EE008230CE006230AE0052308E004234B
:1046200006E0032304E0022302E0012300E000236C
:10463000FA6902F0030292009340BA691343BB6126
:104640003549FB699B080233BA6941F823203B4B8B
:104650009B68BB613B69DB43BA691340BB613B6844
:104660005B6803F48013002B03D0BA693B691343E2
:10467000BB61324ABB699360304BDB68BB613B690D
:10468000DB43BA691340BB613B685B6803F400130A
:10469000002B03D0BA693B691343BB61274ABB694E
:1046A000D360264B5B68BB613B69DB43BA6913404F
:1046B000BB613B685B6803F40033002B03D0BA692D
:1046C0003B691343BB611D4ABB6953601B4B1B68AD
:1046D000BB613B69DB43BA691340BB613B685B6804
:1046E00003F48033002B03D0BA693B691343BB61E9
:1046F000124ABB691360FB690133FB61FB690F2B35
:104700007FF690AE00BF00BF2437BD465DF8047B46
:10471000704700BF003802400038014000000240EE
:104720000004024000080240000C02400010024059
:104730000014024000180240001C0240003C0140EE
:1047400080B485B000AF78600B467B807B681A69C7
:104750007B881340002B02D00123FB7301E0002370
:10476000FB73FB7B18461437BD465DF8047B70472E
:1047700080B483B000AF78600B467B8013467B70BB
:104780007B78002B03D07A887B689A6103E07B8872
:104790001A047B689A6100BF0C37BD465DF8047B44
:1047A0007047000080B584B000AF78607B68002B54
:1047B00001D101232BE17B6893F83D30DBB2002B64
:1047C00006D17B68002283F83C207868FEF718FB4E
:1047D0007B68242283F83D207B681B681A687B680D
:1047E0001B6822F001021A607B681B681A687B68EC
:1047F0001B6842F400421A607B681B681A687B6879
:104800001B6822F400421A6001F07CFDF8607B68AE
:104810005B68814A934207D8FB68804A934294BF01
:1048200001230023DBB206E0FB687D4A934294BF7C
:1048300001230023DBB2002B01D00123E7E0FB685A
:10484000784AA2FB03239B0CBB607B681B685B68F8
:1048500023F03F017B681B68BA680A435A607B6893
:104860001B681B6A23F03F017B685B686A4A9342BE
:1048700002D8BB68013309E0BB684FF4967202FBB3
:1048800003F3694AA2FB03239B0901337A68126888
:104890000B4313627B681B68DB6923F44F4222F0F1
:1048A000FF027B685B685C498B4219D8FB68591E24
:1048B0007B685B685B00B1FBF3F3591C40F6FC734B
:1048C0000B40002B0AD0FB68591E7B685B685B00BD
:1048D000B1FBF3F30133C3F30B0351E004234FE0C7
:1048E0007B689B68002B11D1FB68581E7B68596858
:1048F0000B465B000B44B0FBF3F30133C3F30B0334
:10490000002B0CBF01230023DBB212E0FB68581E12
:104910007B6859680B469B000B4499000B44B0FB25
:10492000F3F30133C3F30B03002B0CBF012300236C
:10493000DBB2002B01D0012322E07B689B68002BB7
:104940000ED1FB68581E7B6859680B465B000B4410
:10495000B0FBF3F30133C3F30B0343F400430FE065
:10496000FB68581E7B6859680B469B000B449900F6
:104970000B44B0FBF3F30133C3F30B0343F44043A5
:10498000796809681343CB617B681B681B6823F057
:10499000C0017B68DA697B681B6A1A437B681B6805
:1049A0000A431A607B681B689B6823F4034323F067
:1049B000FF037A6811697A68D26811437A681268CD
:1049C0000B4393607B681B68DB6823F0FF017B6807
:1049D0005A697B689B691A437B681B680A43DA60E3
:1049E0007B681B681A687B681B6842F001021A60CA
:1049F0007B6800221A647B68202283F83D207B6854
:104A000000221A637B68002283F83E2000231846A8
:104A10001037BD4680BD00BFA08601007F841E0008
:104A2000FF083D0083DE1B43D34D621080B588B084
:104A300002AFF8607A601A460B467B8113463B81D1
:104A4000FEF782FC7861FB6893F83D30DBB2202BE7
:104A500040F0E0807B690093192301227049F868D7
:104A600000F0ACFD0346002B01D00223D3E0FB682D
:104A700093F83C30012B01D10223CCE0FB680122EA
:104A800083F83C20FB681B681B6803F00103012BC3
:104A900007D0FB681B681A68FB681B6842F00102BC
:104AA0001A60FB681B681A68FB681B6822F40062C6
:104AB0001A60FB68212283F83D20FB68102283F8EE
:104AC0003E20FB6800221A64FB687A685A62FB6821
:104AD0003A895A85FB685B8D9AB2FB681A85FB6838
:104AE000504ADA6279897B693A6AF86800F0FCFB1F
:104AF0000346002B01D001238DE000233B61FB68BE
:104B00001B685B693B61FB681B689B693B613B6998
:104B100066E07A69396AF86800F06AFE0346002B9D
:104B20000DD0FB681B6C042B07D1FB681B681A684F
:104B3000FB681B6842F400721A6001236BE0FB689B
:104B40005B6A1A78FB681B681A61FB685B6A5A1C0F
:104B5000FB685A62FB685B8D9BB2013B9AB2FB68B3
:104B60005A85FB681B8D013B9AB2FB681A85FB686E
:104B70001B685B6903F00403042B1BD1FB681B8DCE
:104B8000002B17D0FB685B6A1A78FB681B681A61F8
:104B9000FB685B6A5A1CFB685A62FB685B8D9BB2C0
:104BA000013B9AB2FB685A85FB681B8D013B9AB2A8
:104BB000FB681A857A69396AF86800F061FE034675
:104BC000002B0DD0FB681B6C042B07D1FB681B6806
:104BD0001A68FB681B6842F400721A6001231AE02D
:104BE000FB681B8D002B94D1FB681B681A68FB685F
:104BF0001B6842F400721A60FB68202283F83D2093
:104C0000FB68002283F83E20FB68002283F83C20EA
:104C1000002300E0022318461837BD4680BD00BFC0
:104C2000020010000000FFFF80B58CB002AFF860FA
:104C3000084611461A4603467B810B463B811346C4
:104C4000FB80FEF781FB7862FB6893F83D30DBB2B6
:104C5000202B40F014827B6A0093192301227B49A8
:104C6000F86800F0ABFC0346002B01D0022307E2FA
:104C7000FB6893F83C30012B01D1022300E2FB6872
:104C8000012283F83C20FB681B681B6803F00103CA
:104C9000012B07D0FB681B681A68FB681B6842F091
:104CA00001021A60FB681B681A68FB681B6822F423
:104CB00000621A60FB68222283F83D20FB684022D4
:104CC00083F83E20FB6800221A64FB683A6B5A6244
:104CD000FB68BA8E5A85FB685B8D9AB2FB681A85B1
:104CE000FB685B4ADA62F8883A8979897B6A0193C2
:104CF000BB6B00930346F86800F078FB0346002B7B
:104D000001D00123BCE1FB681B8D002B13D10023D4
:104D10003B62FB681B685B693B62FB681B689B69C5
:104D20003B623B6AFB681B681A68FB681B6842F4BD
:104D300000721A6090E1FB681B8D012B1BD1FB6890
:104D40001B681A68FB681B6822F480621A600023E3
:104D5000FB61FB681B685B69FB61FB681B689B6907
:104D6000FB61FB69FB681B681A68FB681B6842F4FF
:104D700000721A6070E1FB681B8D022B1BD1FB686F
:104D80001B681A68FB681B6822F480621A60FB6863
:104D90001B681A68FB681B6842F400621A600023F3
:104DA000BB61FB681B685B69BB61FB681B689B6937
:104DB000BB61BB6950E100237B61FB681B685B69D9
:104DC0007B61FB681B689B697B617B6944E1FB68D5
:104DD0001B8D032B00F2F180FB681B8D012B23D16F
:104DE0007A6AB96BF86800F093FD0346002B01D096
:104DF000012345E1FB681B681A69FB685B6AD2B254
:104E00001A70FB685B6A5A1CFB685A62FB681B8D50
:104E1000013B9AB2FB681A85FB685B8D9BB2013B34
:104E20009AB2FB685A8517E1FB681B8D022B4ED1A5
:104E30007B6A0093BB6B00220649F86800F0BEFB5A
:104E40000346002B08D001231AE100BF0200100026
:104E50000000FFFF04000100FB681B681A68FB6884
:104E60001B6842F400721A60FB681B681A69FB68D1
:104E70005B6AD2B21A70FB685B6A5A1CFB685A62A2
:104E8000FB681B8D013B9AB2FB681A85FB685B8D42
:104E90009BB2013B9AB2FB685A85FB681B681A6992
:104EA000FB685B6AD2B21A70FB685B6A5A1CFB68CB
:104EB0005A62FB681B8D013B9AB2FB681A85FB683E
:104EC0005B8D9BB2013B9AB2FB685A85C4E07B6A5A
:104ED0000093BB6B00226C49F86800F06FFB03463F
:104EE000002B01D00123CBE0FB681B681A68FB682C
:104EF0001B6822F480621A60FB681B681A69FB68F1
:104F00005B6AD2B21A70FB685B6A5A1CFB685A6211
:104F1000FB681B8D013B9AB2FB681A85FB685B8DB1
:104F20009BB2013B9AB2FB685A857B6A0093BB6BCC
:104F300000225549F86800F041FB0346002B01D0E0
:104F400001239DE0FB681B681A68FB681B6842F43C
:104F500000721A60FB681B681A69FB685B6AD2B250
:104F60001A70FB685B6A5A1CFB685A62FB681B8DEF
:104F7000013B9AB2FB681A85FB685B8D9BB2013BD3
:104F80009AB2FB685A85FB681B681A69FB685B6A02
:104F9000D2B21A70FB685B6A5A1CFB685A62FB68E3
:104FA0001B8D013B9AB2FB681A85FB685B8D9BB237
:104FB000013B9AB2FB685A854EE07A6AB96BF86891
:104FC00000F0A6FC0346002B01D0012358E0FB684B
:104FD0001B681A69FB685B6AD2B21A70FB685B6A6D
:104FE0005A1CFB685A62FB681B8D013B9AB2FB6836
:104FF0001A85FB685B8D9BB2013B9AB2FB685A85B0
:10500000FB681B685B6903F00403042B24D1FB6875
:105010001B8D032B07D1FB681B681A68FB681B6894
:1050200022F480621A60FB681B681A69FB685B6A7D
:10503000D2B21A70FB685B6A5A1CFB685A62FB6842
:105040001B8D013B9AB2FB681A85FB685B8D9BB296
:10505000013B9AB2FB685A85FB681B8D002B7FF4DD
:10506000B6AEFB68202283F83D20FB68002283F85F
:105070003E20FB68002283F83C20002300E002234E
:1050800018462837BD4680BD0400010080B58AB0AF
:1050900002AFF8607A603B600B467B81FEF754F903
:1050A000F8610023BB61FB6893F83D30DBB2202B35
:1050B00040F01181FB690093192301228849F868A7
:1050C00000F07CFA0346002B01D0022304E1FB68C8
:1050D00093F83C30012B01D10223FDE0FB68012253
:1050E00083F83C20FB681B681B6803F00103012B5D
:1050F00007D0FB681B681A68FB681B6842F0010256
:105100001A60FB681B681A68FB681B6822F400625F
:105110001A60FB68242283F83D20FB6800221A6491
:10512000FB68704ADA62FB681B681A68FB681B68D8
:1051300042F480721A60FB6900933B6800224FF0D2
:105140000111F86800F03AFA0346002B0DD0FB6815
:105150001B681B6803F48073B3F5807F03D1FB6881
:105160004FF400721A640323B6E07B89DBB21A465F
:10517000FB681B6802F0FE021A61FEF7E5F8F861B1
:10518000FB681B685B6903F00203022B0CBF012361
:105190000023DBB2FB75FB681B685B6903F480636B
:1051A000B3F5806F0CBF01230023DBB2BB7525E094
:1051B000FEF7CAF80246FB69D31A3A689A4202D34C
:1051C0003B68002B03D1FB68A02283F83D20FB68DD
:1051D0001B685B6903F00203022B0CBF0123002351
:1051E000DBB2FB75FB681B685B6903F48063B3F596
:1051F000806F0CBF01230023DBB2BB75FB6893F803
:105200003D30DBB2A02B05D0FB7D002B02D1BB7D56
:10521000002BCDD0FB68202283F83D20FB681B6863
:105220005B6903F00203022B29D1FB681B681A6833
:10523000FB681B6842F400721A6000233B61FB6844
:105240001B685B693B61FB681B689B693B613B6951
:10525000FB690093192301222149F86800F0AEF997
:105260000346002B01D0012336E0FB68202283F89F
:105270003D20FB68002283F83C2000232CE0FB68E3
:105280001B681A68FB681B6842F400721A60FB68AE
:105290001B686FF480625A61FB6900931923012235
:1052A0000F49F86800F08AF90346002B01D001236A
:1052B00012E0BB690133BB61BA697B689A42FFF4B3
:1052C00032AFFB68202283F83D20FB68002283F880
:1052D0003C20012300E0022318462037BD4680BD54
:1052E000020010000000FFFF80B588B002AFF86038
:1052F0007A603B600B467B81FB68DB6A7B617B6984
:10530000082B06D07B69012B03D07B6913F5803F06
:1053100008D1FB681B681A68FB681B6842F480723E
:105320001A600BE0FB681B6B122B07D1FB681B6834
:105330001A68FB681B6842F480721A603B6800932D
:105340007B6800224FF00111F86800F037F903463E
:10535000002B0DD0FB681B681B6803F48073B3F54A
:10536000807F03D1FB684FF400721A64032335E099
:10537000FB681B69B3F5804F08D17B89DBB21A4605
:10538000FB681B6802F0FE021A611BE07B89DB11DF
:10539000DBB203F00603DBB263F00F03DAB2FB68A3
:1053A0001B681A613B687A680E49F86800F080F95A
:1053B0000346002B01D0012310E07B89DAB2FB68A1
:1053C0001B681A613B687A680749F86800F070F951
:1053D0000346002B01D0012300E0002318461837B4
:1053E000BD4680BD080001000200010080B588B004
:1053F00002AFF860084611461A4603467B810B4609
:105400003B811346FB80FB681B681A68FB681B68BE
:1054100042F480621A60FB681B681A68FB681B68AC
:1054200042F480721A607B6A00933B6A00224FF05C
:105430000111F86800F0C2F80346002B0DD0FB689C
:105440001B681B6803F48073B3F5807F03D1FB688E
:105450004FF400721A640323AAE07B89DBB21A4678
:10546000FB681B6802F0FE021A617B6A3A6A5249C5
:10547000F86800F01DF90346002B01D0012397E0E6
:1054800000237B61FB681B685B697B61FB681B68B1
:105490009B697B617B697A6A396AF86800F0A8F9D0
:1054A0000346002B0DD0FB681B6C042B07D1FB6857
:1054B0001B681A68FB681B6842F400721A600123BB
:1054C00076E0FB88012B05D13B89DAB2FB681B68CB
:1054D0001A6121E03B891B0A9BB2DAB2FB681B68A8
:1054E0001A617A6A396AF86800F082F90346002B7B
:1054F0000DD0FB681B6C042B07D1FB681B681A6876
:10550000FB681B6842F400721A60012350E03B897B
:10551000DAB2FB681B681A617A6A396AF86800F0C7
:1055200067F90346002B0DD0FB681B6C042B07D1D9
:10553000FB681B681A68FB681B6842F400721A60FB
:10554000012335E0FB681B681A68FB681B6842F49E
:1055500080721A607B6A00933B6A00224FF001114F
:10556000F86800F02BF80346002B0DD0FB681B6891
:105570001B6803F48073B3F5807F03D1FB684FF49D
:1055800000721A64032313E07B89DBB243F001034A
:10559000DAB2FB681B681A617B6A3A6A0649F868E6
:1055A00000F086F80346002B01D0012300E0002321
:1055B00018461837BD4680BD0200010080B584B092
:1055C00000AFF860B9603B601346FB7148E03B6890
:1055D000B3F1FF3F44D0FDF7B7FE0246BB69D31AD3
:1055E0003A689A4202D33B68002B39D1BB681B0C46
:1055F000DBB2012B0DD1FB681B685B69DA43BB682A
:1056000013409BB2002B0CBF01230023DBB21A46D0
:105610000CE0FB681B689B69DA43BB6813409BB2D4
:10562000002B0CBF01230023DBB21A46FB799A4200
:1056300016D1FB6800221A63FB68202283F83D2004
:10564000FB68002283F83E20FB681B6C43F02002BD
:10565000FB681A64FB68002283F83C20012323E0E6
:10566000BB681B0CDBB2012B0DD1FB681B685B69AF
:10567000DA43BB6813409BB2002B0CBF012300230D
:10568000DBB21A460CE0FB681B689B69DA43BB6817
:1056900013409BB2002B0CBF01230023DBB21A4640
:1056A000FB799A4293D0002318461037BD4680BD3F
:1056B00080B584B000AFF860B9607A603B6071E09B
:1056C000FB681B685B6903F48063B3F5806F23D1CB
:1056D000FB681B681A68FB681B6842F400721A605A
:1056E000FB681B686FF480625A61FB6800221A63D2
:1056F000FB68202283F83D20FB68002283F83E20CF
:10570000FB681B6C43F00402FB681A64FB68002210
:1057100083F83C20012367E07B68B3F1FF3F41D071
:10572000FDF712FE02463B68D31A7A689A4202D30A
:105730007B68002B36D1BB681B0CDBB2012B0CD174
:10574000FB681B685B69DA43BB6813409BB2002BA4
:1057500014BF01230023DBB20BE0FB681B689B69CD
:10576000DA43BB6813409BB2002B14BF0123002314
:10577000DBB2002B16D0FB6800221A63FB682022E4
:1057800083F83D20FB68002283F83E20FB681B6CF9
:1057900043F02002FB681A64FB68002283F83C2077
:1057A000012321E0BB681B0CDBB2012B0CD1FB6891
:1057B0001B685B69DA43BB6813409BB2002B14BFC4
:1057C00001230023DBB20BE0FB681B689B69DA4313
:1057D000BB6813409BB2002B14BF01230023DBB234
:1057E000002B7FF46DAF002318461037BD4680BDF7
:1057F00080B584B000AFF860B9607A6034E0F868D2
:1058000000F0E3F80346002B01D0012334E0BB682D
:10581000B3F1FF3F28D0FDF797FD02467B68D31A0E
:10582000BA689A4202D3BB68002B1DD1FB681B6883
:105830005B6903F08003802B16D0FB6800221A639B
:10584000FB68202283F83D20FB68002283F83E207D
:10585000FB681B6C43F02002FB681A64FB680022A3
:1058600083F83C20012307E0FB681B685B6903F0B9
:105870008003802BC3D1002318461037BD4680BD5E
:1058800080B584B000AFF860B9607A6034E0F86841
:1058900000F09BF80346002B01D0012334E0BB68E5
:1058A000B3F1FF3F28D0FDF74FFD02467B68D31AC6
:1058B000BA689A4202D3BB68002B1DD1FB681B68F3
:1058C0005B6903F00403042B16D0FB6800221A6303
:1058D000FB68202283F83D20FB68002283F83E20ED
:1058E000FB681B6C43F02002FB681A64FB68002213
:1058F00083F83C20012307E0FB681B685B6903F029
:105900000403042BC3D1002318461037BD4680BDC5
:1059100080B584B000AFF860B9607A6049E0FB6898
:105920001B685B6903F01003102B19D1FB681B681F
:105930006FF010025A61FB6800221A63FB68202294
:1059400083F83D20FB68002283F83E20FB681A6C38
:10595000FB681A64FB68002283F83C20012330E0D6
:10596000FDF7F2FC02467B68D31ABA689A4202D36A
:10597000BB68002B1DD1FB681B685B6903F040030B
:10598000402B16D0FB6800221A63FB68202283F8A4
:105990003D20FB68002283F83E20FB681B6C43F02F
:1059A0002002FB681A64FB68002283F83C20012374
:1059B00007E0FB681B685B6903F04003402BAED136
:1059C000002318461037BD4680BD80B483B000AFB9
:1059D00078607B681B685B6903F48063B3F5806F54
:1059E0001BD17B681B686FF480625A617B68002260
:1059F0001A637B68202283F83D207B68002283F8AD
:105A00003E207B681B6C43F004027B681A647B6851
:105A1000002283F83C20012300E0002318460C37C5
:105A2000BD465DF8047B704780B586B000AF7860F6
:105A30007B68002B01D1012367E27B681B6803F0C0
:105A40000103002B75D0884B9B6803F00C03042BDB
:105A50000CD0854B9B6803F00C03082B12D1824BB2
:105A60005B6803F48003B3F5800F0BD17E4B1B689A
:105A700003F40033002B5BD07B685B68002B57D1AD
:105A8000012342E27B685B68B3F5803F06D1764B29
:105A90001B68754A43F4803313601DE07B685B68C4
:105AA000B3F5A02F0CD1704B1B686F4A43F48023D1
:105AB00013606D4B1B686C4A43F4803313600BE03A
:105AC000694B1B68684A23F480331360664B1B687C
:105AD000654A23F4802313607B685B68002B13D036
