:020000040800F2
:100000000000022059210008451F00084D1F00086C
:10001000551F00085D1F0008651F00080000000054
:100020000000000000000000000000006D1F00083C
:100030007B1F000800000000891F0008971F0008B0
:10004000A9210008A9210008A9210008A921000868
:10005000A9210008A9210008A9210008A921000858
:10006000A9210008A9210008A9210008A921000848
:10007000A9210008A9210008A9210008A921000838
:10008000A9210008A9210008A9210008A921000828
:10009000A51F0008B91F0008A9210008A921000810
:1000A000A9210008A9210008A9210008A921000808
:1000B000A9210008A9210008A9210008A9210008F8
:1000C000A9210008A9210008A9210008A9210008E8
:1000D000A9210008A9210008CD1F0008A9210008B6
:1000E000A9210008A9210008A9210008A9210008C8
:1000F000A9210008A9210008A9210008A9210008B8
:10010000A9210008A9210008A9210008A9210008A7
:10011000A9210008A9210008A9210008A921000897
:10012000A9210008A9210008A9210008A921000887
:10013000A9210008A9210008A9210008A921000877
:10014000A9210008A9210008A9210008A921000867
:10015000A9210008A9210008A9210008A921000857
:10016000A9210008A9210008A9210008A921000847
:10017000A9210008A9210008A92100080000000009
:08018000A9210008A9210008D3
:1001900010B5054C237833B9044B13B10448AFF3C1
:1001A00000800123237010BDB80200200000000071
:1001B0001CA0000808B5034B1BB103490348AFF36B
:1001C000008008BD00000000BC0200201CA0000848
:1001D00001F0FF01102A2BDB10F0070F08D010F8F8
:1001E000013B013A8B422DD010F0070F42B3F6D1FC
:1001F000F0B441EA012141EA014122F007047FF015
:1002000000070023F0E80256083C85EA010586EA6B
:10021000010685FA47F5A3FA87F586FA47F6A5FAA7
:1002200087F68EB9EED1F0BC01F0FF0102F00702B3
:1002300032B110F8013B013A83EA010313B1F8D15E
:100240000020704701387047002D06BF354603383F
:10025000073815F0010F07D1013015F4807F02BF78
:10026000013015F4C03F0130F0BC0138704700BFC9
:10027000034613F8012B002AFBD1181A01387047E6
:1002800081F0004102E000BF83F0004330B54FEA47
:1002900041044FEA430594EA050F08BF90EA020FB4
:1002A0001FBF54EA000C55EA020C7FEA645C7FEA47
:1002B000655C00F0E2804FEA5454D4EB5555B8BF6A
:1002C0006D420CDD2C4480EA020281EA030382EADB
:1002D000000083EA010180EA020281EA0303362D6D
:1002E00088BF30BD11F0004F4FEA01314FF4801C40
:1002F0004CEA113102D0404261EB410113F0004F52
:100300004FEA03334CEA133302D0524263EB430308
:1003100094EA050F00F0A780A4F10104D5F1200EA6
:100320000DDB02FA0EFC22FA05F2801841F1000101
:1003300003FA0EF2801843FA05F359410EE0A5F1D5
:1003400020050EF1200E012A03FA0EFC28BF4CF006
:10035000020C43FA05F3C01851EBE37101F00045BC
:1003600007D54FF0000EDCF1000C7EEB00006EEBC9
:100370000101B1F5801F1BD3B1F5001F0CD3490853
:100380005FEA30004FEA3C0C04F101044FEA4452AA
:1003900012F5800F80F09A80BCF1004F08BF5FEA31
:1003A000500C50F1000041EB045141EA050130BD11
:1003B0005FEA4C0C404141EB0101013C28BFB1F523
:1003C000801FE9D291F0000F04BF01460020B1FA6E
:1003D00081F308BF2033A3F10B03B3F120020CDA41
:1003E0000C3208DD02F1140CC2F10C0201FA0CF01F
:1003F00021FA02F10CE002F11402D8BFC2F1200C84
:1004000001FA02F120FA0CFCDCBF41EA0C01904039
:10041000E41AA2BF01EB0451294330BD6FEA040482
:100420001F3C1CDA0C340EDC04F11404C4F120026D
:1004300020FA04F001FA02F340EA030021FA04F37F
:1004400045EA030130BDC4F10C04C4F1200220FAD6
:1004500002F001FA04F340EA0300294630BD21FA14
:1004600004F0294630BD94F0000F83F4801306BFDA
:1004700081F480110134013D4EE77FEA645C18BFCE
:100480007FEA655C29D094EA050F08BF90EA020F65
:1004900005D054EA000C04BF1946104630BD91EA5D
:1004A000030F1EBF0021002030BD5FEA545C05D160
:1004B0004000494128BF41F0004130BD14F580049F
:1004C0003CBF01F5801130BD01F0004545F0FE4113
:1004D00041F470014FF0000030BD7FEA645C1ABF48
:1004E000194610467FEA655C1CBF0B46024650EA7F
:1004F000013406BF52EA033591EA030F41F40021AB
:1005000030BD00BF90F0000F04BF0021704730B530
:100510004FF4806404F132044FF000054FF0000105
:1005200050E700BF90F0000F04BF0021704730B5C6
:100530004FF4806404F1320410F0004548BF40429B
:100540004FF000013EE700BF42004FEAE2014FEAF0
:1005500031014FEA02701FBF12F07F4393F07F4FCB
:1005600081F06051704732F07F4208BF704793F0CE
:100570007F4F04BF41F40021704730B54FF46074E1
:1005800001F0004521F000411CE700BF50EA0102E4
:1005900008BF704730B54FF000050AE050EA01028D
:1005A00008BF704730B511F0004502D5404261EBFD
:1005B00041014FF4806404F132045FEA915C3FF43E
:1005C000D8AE4FF003025FEADC0C18BF03325FEADB
:1005D000DC0C18BF033202EBDC02C2F1200300FA8C
:1005E00003FC20FA02F001FA03FE40EA0E0021FAB1
:1005F00002F11444BDE600BF70B54FF0FF0C4CF49F
:10060000E06C1CEA11541DBF1CEA135594EA0C0F50
:1006100095EA0C0F00F0DEF82C4481EA030621EA8B
:100620004C5123EA4C5350EA013518BF52EA0335C6
:1006300041F4801143F4801338D0A0FB02CE4FF078
:100640000005E1FB02E506F00042E0FB03E54FF0A8
:100650000006E1FB03569CF0000F18BF4EF0010EA0
:10066000A4F1FF04B6F5007F64F5407404D25FEA9C
:100670004E0E6D4146EB060642EAC62141EA55514F
:100680004FEAC52040EA5E504FEACE2EB4F1FD0C91
:1006900088BFBCF5E06F1ED8BEF1004F08BF5FEA0F
:1006A000500E50F1000041EB045170BD06F00046C1
:1006B00046EA010140EA020081EA0301B4EB5C046E
:1006C000C2BFD4EB0C0541EA045170BD41F4801166
:1006D0004FF0000E013C00F3AB8014F1360FDEBF8B
:1006E000002001F0004170BDC4F10004203C35DA67
:1006F0000C341BDC04F11404C4F1200500FA05F3EA
:1007000020FA04F001FA05F240EA020001F000428A
:1007100021F0004110EBD37021FA04F642EB060100
:100720005EEA430E08BF20EAD37070BDC4F10C042A
:10073000C4F1200500FA04F320FA05F001FA04F2EE
:1007400040EA020001F0004110EBD37041F10001DA
:100750005EEA430E08BF20EAD37070BDC4F12005E5
:1007600000FA05F24EEA020E20FA04F301FA05F24D
:1007700043EA020321FA04F001F0004121FA04F2F5
:1007800020EA020000EBD3705EEA430E08BF20EAC5
:10079000D37070BD94F0000F0FD101F000464000FF
:1007A00041EB010111F4801F08BF013CF7D041EA81
:1007B000060195F0000F18BF704703F00046520085
:1007C00043EB030313F4801F08BF013DF7D043EA56
:1007D0000603704794EA0C0F0CEA135518BF95EA0C
:1007E0000C0F0CD050EA410618BF52EA4306D1D193
:1007F00081EA030101F000414FF0000070BD50EAB2
:10080000410606BF1046194652EA430619D094EA3B
:100810000C0F02D150EA013613D195EA0C0F05D125
:1008200052EA03361CBF104619460AD181EA030179
:1008300001F0004141F0FE4141F470014FF0000031
:1008400070BD41F0FE4141F4780170BD70B54FF0CC
:10085000FF0C4CF4E06C1CEA11541DBF1CEA13554C
:1008600094EA0C0F95EA0C0F00F0A7F8A4EB05042E
:1008700081EA030E52EA03354FEA013100F0888025
:100880004FEA03334FF0805545EA131343EA1263EE
:100890004FEA022245EA111545EA10654FEA0026A3
:1008A0000EF000419D4208BF964244F1FD0404F55C
:1008B000407402D25B084FEA3202B61A65EB0305B8
:1008C0005B084FEA32024FF480104FF4002CB6EB75
:1008D000020E75EB030E22BFB61A754640EA0C00F5
:1008E0005B084FEA3202B6EB020E75EB030E22BF35
:1008F000B61A754640EA5C005B084FEA3202B6EB76
:10090000020E75EB030E22BFB61A754640EA9C0034
:100910005B084FEA3202B6EB020E75EB030E22BF04
:10092000B61A754640EADC0055EA060E18D04FEAC2
:10093000051545EA16754FEA06164FEAC30343EA62
:1009400052734FEAC2025FEA1C1CC0D111F4801F2F
:100950000BD141EA00014FF000004FF0004CB6E728
:1009600011F4801F04BF01430020B4F1FD0C88BFC7
:10097000BCF5E06F3FF6AFAEB5EB030C04BFB6EBD2
:10098000020C5FEA500C50F1000041EB045170BDC5
:100990000EF0004E4EEA113114EB5C04C2BFD4EBF2
:1009A0000C0541EA045170BD41F480114FF0000E76
:1009B000013C90E645EA060E8DE60CEA135594EAF2
:1009C0000C0F08BF95EA0C0F3FF43BAF94EA0C0FF5
:1009D0000AD150EA01347FF434AF95EA0C0F7FF46A
:1009E00025AF104619462CE795EA0C0F06D152EABE
:1009F00003353FF4FDAE1046194622E750EA4106A2
:100A000018BF52EA43067FF4C5AE50EA41047FF4B2
:100A10000DAF52EA43057FF4EBAE12E74FF0FF3C17
:100A200006E000BF4FF0010C02E000BF4FF0010CE8
:100A30004DF804CD4FEA410C7FEA6C5C4FEA430C61
:100A400018BF7FEA6C5C1BD001B050EA410C0CBFB0
:100A500052EA430C91EA030F02BF90EA020F002012
:100A6000704710F1000F91EA030F58BF994208BF79
:100A700090422CBFD8176FEAE37040F00100704736
:100A80004FEA410C7FEA6C5C02D150EA013C07D18D
:100A90004FEA430C7FEA6C5CD6D152EA033CD3D0D8
:100AA0005DF8040B704700BF8446104662468C46D2
:100AB0001946634600E000BF01B5FFF7B7FF002805
:100AC00048BF10F1000F01BD4DF808EDFFF7F4FF2E
:100AD0000CBF012000205DF808FB00BF4DF808EDB9
:100AE000FFF7EAFF34BF012000205DF808FB00BFDC
:100AF0004DF808EDFFF7E0FF94BF012000205DF8FE
:100B000008FB00BF4DF808EDFFF7CEFF94BF0120B2
:100B100000205DF808FB00BF4DF808EDFFF7C4FFAB
:100B200034BF012000205DF808FB00BF4FEA410CF4
:100B30007FEA6C5C02D150EA013C0AD14FEA430CD7
:100B40007FEA6C5C02D152EA033C02D14FF0000014
:100B500070474FF0010070474FEA410212F5001252
:100B600015D211D56FF47873B3EB625212D94FEAF4
:100B7000C12343F0004343EA505311F0004F23FADE
:100B800002F018BF404270474FF00000704750EA33
:100B9000013005D111F0004008BF6FF000407047F0
:100BA0004FF00000704700BF4A0011D212F500124A
:100BB00011D20DD56FF47873B3EB62520ED44FEAB5
:100BC000C12343F0004343EA505323FA02F0704735
:100BD0004FF00000704750EA013002D14FF0FF3073
:100BE00070474FF0000070474FEA4102B2F1E04316
:100BF00024BFB3F5001CDCF1FE5C0DD901F0004C04
:100C00004FEAC0024CEA5070B2F1004F40EB830053
:100C100008BF20F00100704711F0804F21D113F17F
:100C20003872BCBF01F00040704741F480114FEAB8
:100C30005252C2F11802C2F1200C10FA0CF320FA41
:100C400002F018BF40F001004FEAC1234FEAD3235E
:100C500003FA0CFC40EA0C0023FA02F34FEA4303C8
:100C6000CCE77FEA625307D150EA01331EBF4FF051
:100C7000FE4040F44000704701F0004040F0FE406C
:100C800040F40000704700BF53B94AB9002908BFBB
:100C900000281CBF4FF0FF314FF0FF3000F0BEB90D
:100CA000ADF1080C6DE904CE00F03CF8DDF804E08D
:100CB000DDE9022304B0704738B500220023044662
:100CC0000D46FFF70BFF28B920462946BDE83840FE
:100CD00000F00AB8204605F1004100F005F8404256
:100CE00061EB410138BD00BFD0B50C4B0022064678
:100CF0000F46FFF781FCFFF757FF0446FFF702FCA2
:100D0000074B0022FFF778FC02460B463046394677
:100D1000FFF7BAFAFFF748FF2146D0BD0000F03DCB
:100D20000000F0412DE9F047089D8E4604468846B4
:100D3000002B4AD18A42174662D9B2FA82F64EB1E6
:100D4000C6F1200301FA06F820FA03F3B74043EA9C
:100D50000808B4404FEA174E1FFA87FCB8FBFEF1B3
:100D6000230C0EFB118843EA084301FB0CF29A4264
:100D700009D9FB1801F1FF3080F0EA809A4240F275
:100D8000E78002393B449A1AA3B2B2FBFEF00EFB95
:100D9000102243EA024300FB0CFC9C4509D9FB18D6
:100DA00000F1FF3280F0D6809C4540F2D3803B4476
:100DB000023840EA0140A3EB0C0300211DB1F340CF
:100DC0000022C5E90032BDE8F0878B4205D90DB19C
:100DD000C5E9000100210846F5E7B3FA83F10029CF
:100DE00046D1734502D3824200F20581841A6EEB2C
:100DF000030201209046002DE5D0C5E90048E2E756
:100E0000002A00F09080B2FA82F6002E40F0A48012
:100E10008A1A030C4FEA174E80B2BCB20121B2FB12
:100E2000FEFC0EFB1C2243EA024304FB0CF29A4236
:100E300007D9FB180CF1FF3802D29A4200F2E08089
:100E4000C4469B1AB3FBFEF20EFB123340EA034387
:100E500002FB04F49C4207D9FB1802F1FF3002D2D6
:100E60009C4200F2CA8002461B1B42EA0C40A5E7E6
:100E7000C1F120068B4022FA06F71F430EFA01F457
:100E800020FA06F32EFA06FE4FEA1749234300FA2A
:100E900001F81FFA87FCBEFBF9F01C0C09FB10EEF1
:100EA00044EA0E4400FB0CFEA64502FA01F209D901
:100EB0003C1900F1FF3A80F09C80A64540F29980F1
:100EC00002383C44A4EB0E041FFA83FEB4FBF9F392
:100ED00009FB13444EEA044403FB0CFCA44508D967
:100EE0003C1903F1FF3E80F08280A4457FD9023B8C
:100EF0003C4443EA0040A4EB0C04A0FB02EC644534
:100F00007346E14662D35FD05DB1B8EB030264EB98
:100F1000090404FA06F622FA01F31E43CC40C5E99F
:100F2000006400214FE7B1FBF2FC010C41EA0E41E5
:100F300080B240EA01423B4638463C46B846BE468F
:100F40002026B1FBF7F1A2EB080241EA0C4166E76B
:100F5000014618E710462CE7C6F120022EFA02F3EC
:100F6000B740B14020FA02F24FEA174E0A43B3FBF2
:100F7000FEF8BCB20EFB1833110C41EA034108FB2A
:100F800004F9B04089454FEA104380B23ED9791840
:100F900008F1FF3C01D289451FD8A1EB0901B1FB43
:100FA000FEF909FB04F80EFB191192B242EA014264
:100FB000424529D2BA1809F1FF31C4D24245C2D202
:100FC000A9F102013A44BEE7F0459DD2BEEB02030F
:100FD0006CEB070C0138E14696E7A7EB0909494499
:100FE000A8F1020CB1FBFEF909FB04F8DBE773463C
:100FF0007FE7504666E70846FDE63B44023A33E7A2
:10100000ACF1020C3B441CE749469CE7A1EB09010B
:10101000C446B1FBFEF909FB04F8C4E7704700BF02
:1010200080B584B000AF03463960FB710023FB73C9
:1010300058E0FB792F4A52F83300FB792D4ADB0048
:1010400013449B880022194602F0EEFA012000F0BA
:10105000EBFDFB79284AA2FB03235B08DBB21A46AF
:10106000264B53F83200FB79234AA2FB03235B088B
:10107000DBB2224ADB0013449988FB7B3A681344B5
:101080001B781A4602F0D0FAFB791B4AA2FB032315
:101090005B08DBB21A46194B53F83200FB79164A4B
:1010A000A2FB03235B08DBB2144ADB0013449988DC
:1010B000FB7B3A6813441B781A4602F0B5FA01200C
:1010C00000F0B2FDFB790B4A52F83300FB79094A74
:1010D000DB0013449B880122194602F0A5FAFB7B32
:1010E0000133FB73FB7B072BA3D900BF00BF103775
:1010F000BD4680BD00000020ABAAAAAAC000002007
:1011000080B584B000AF03463960FB713A6807F1DF
:1011100008031068516803C3FB79134A52F833007F
:10112000FB79114ADB0013449B880022194602F028
:101130007BFA012001F0ACF807F10802FB791146B7
:101140001846FFF76DFFFB79074A52F83300FB7929
:10115000054ADB0013449B880122194602F064FA19
:1011600000BF1037BD4680BD6000002080B584B050
:1011700000AF786039600023FB730BE0FB7BDB0082
:101180003A68134408220021184606F0CEF9FB7B8A
:101190000133FB73FB7B042BF0D90023BB734BE0C3
:1011A000BB7B9B087B73BB7B03F003033B733B7BE5
:1011B0005B00FB72FB7A0133BB72BB7B7A68134422
:1011C0001B78022B24D0022B32DC002B01D0012B08
:1011D0002EE07B7BDB003A681A44FB7AD15C7B7B98
:1011E000DB003A681A44FB7A41F00101C9B2D154DC
:1011F0007B7BDB003A681A44BB7AD15C7B7BDB00EB
:101200003A681A44BB7A41F00101C9B2D15410E0E6
:101210007B7BDB003A681A44FB7AD15C7B7BDB008A
:101220003A681A44FB7A41F00101C9B2D15400E096
:1012300000BFBB7B0133BB73BB7B132BB0D900BF9B
:1012400000BF1037BD4680BD80B586B000AF786066
:1012500020497868FFF78AFF00237B611CE00023A8
:101260003B6113E03B69C3F107031A497A69D20075
:101270000A4413441978184A7B69DB001A443B6915
:1012800013440A461A703B6901333B613B69072BE3
:10129000E8DD7B6901337B617B69042BDFDD0023A3
:1012A000FB730EE0FB7BDB000B4A1A44FB7B114611
:1012B0001846FFF725FF012000F0EAFFFB7B013312
:1012C000FB73FB7B042BEDD900BF00BF1837BD4675
:1012D00080BD00BFD4020020FC02002080B483B097
:1012E00000AF0346FB71FB79303B262B56D801A299
:1012F00052F823F095130008911300089D1300087D
:101300009D1300089D1300089D1300089D130008FD
:101310009D1300089D1300089D1300089D130008ED
:101320009D1300089D1300089D1300089D130008DD
:101330009D1300089D1300089D1300089D130008CD
:101340009D1300089D1300089D1300089D130008BD
:1013500095130008991300089D1300089D130008B9
:101360009D130008991300089D1300089D130008A1
:101370009D1300089D1300089D1300089D1300088D
:101380009D1300089D1300089D1300089113000889
:10139000012304E0002302E0022300E002231846B8
:1013A0000C37BD465DF8047B704700BF90B587B031
:1013B00000AF0346B9607A60FB737B680833022292
:1013C0001A707B68093301221A707B680A33002285
:1013D0001A707B680B3302221A700023FB750EE033
:1013E000FB7DBA6813441978FB7D7A68D4180846E7
:1013F000FFF774FF03462370FB7D0133FB75FB7D14
:10140000072BEDD9FB7B122B2DD1BB6808331A7843
:101410007B6803F108041046FFF760FF0346237062
:10142000BB6809331A787B6803F10B041046FFF799
:1014300055FF034623700A23BB7510E0BB7DBA68D5
:1014400013441A78BB7D023319467B685C1810463A
:10145000FFF744FF03462370BB7D0133BB75BB7DA3
:10146000112BEBD916E008237B7510E07B7DBA6861
:1014700013441A787B7D043319467B685C18104648
:10148000FFF72CFF034623707B7D01337B757B7D4B
:101490000F2BEBD900BF1C37BD4690BD80B483B085
:1014A00000AF78604FF06043D3F8803E03F0010353
:1014B000002B13D04FF06043D3F8003E03F001033C
:1014C000002B0BD000E000BF4FF060431B68002BE7
:1014D000F9D04FF060437A68D2B21A707B68184630
:1014E0000C37BD465DF8047B70470000B0B59EB078
:1014F00000AF00F05BFE00F0BFF800F04DFA00F026
:1015000021FA00F0A5F900F075F900F01FF900F0DC
:10151000EFF964224C494D4803F00CFA4C4802F0B4
:10152000C7FE4C4B07F158041D460FCD0FC42B6866
:101530002360494B07F144041D460FCD0FC42B68AF
:101540002360464B07F130041D460FCD0FC42B68B6
:10155000236007F130031846FFF776FE082387F86B
:101560007230102387F8713097F8722013469B0071
:1015700013449B00184604F08FF90346FB66384B72
:101580001B683849184605F0EBFF7867002387F899
:1015900073302BE097F8732013469B0013449B0095
:1015A0001A46FB6E1A4497F87130796F1846FFF7A8
:1015B000FDFE97F8732013469B0013449B001A46C8
:1015C000FB6E134407F11C041D4628686968AA686D
:1015D000EB680FC42869206097F87330013387F8EF
:1015E00073302049002005F0BBFF78677B6F002B2C
:1015F000D0D1FB6E3B6100237B731B4B06221A612B
:10160000194B40F203121A60174B00229A60164BD6
:101610000022DA60154A3B1D92E80300186004338B
:101620001980134801F034F80221114801F066FADC
:101630003A1D104B0C490E4801F06EF84FF4FA6059
:1016400000F026FE00BFF3E77804002030040020FD
:10165000A0030020C8A00008DCA00008F0A000083B
:10166000E0000020C4A00008DC04002004A1000861
:10167000240300201805002080B594B000AF07F1C6
:10168000200330220021184605F04FFF07F10C031C
:1016900000221A605A609A60DA601A610023BB6007
:1016A000284B1B6C274A43F080531364254B1B6C5B
:1016B00003F08053BB60BB6800237B60224B1B6838
:1016C000214A43F4804313601F4B1B6803F480439B
:1016D0007B607B6802233B620123FB6210233B6338
:1016E0000223BB630023FB6308233B6448237B6422
:1016F0000223BB640423FB6407F12003184602F0B5
:10170000F1F80346002B01D000F0A8FA0F23FB608C
:1017100002233B6100237B614FF48053BB614FF494
:101720008053FB6107F10C030221184602F052FBC3
:101730000346002B01D000F091FA00BF5037BD46A0
:1017400080BD00BF003802400070004080B58AB004
:1017500000AF264B264A1A60244B04225A60234BC2
:1017600000229A60214B0022DA60204B4FF4602265
:101770001A611E4B4FF480125A611C4B00221A76DC
:101780001A4B00225A76194B00229A76174B0022E8
:10179000DA76164B00221A77144B00225A77134838
:1017A00000F09AFD0346002B01D000F057FA012308
:1017B0003B6212237B6100233B6142F260033B608A
:1017C00000237B6042F26003BB600023FB600023C8
:1017D000BB610123FB6114237B623B46194603482E
:1017E00000F076FE00BF2837BD4680BD24030020F0
:1017F0000064004080B500AF124B134A1A60114BD1
:10180000124A5A600F4B00229A600E4B0022DA6097
:101810000C4B4FF480421A610A4B00225A61094B6B
:1018200000229A61074B0022DA61064B00221A62FD
:10183000044801F013FF0346002B01D000F00EFA1C
:1018400000BF80BD4C03002000540040801A0600F9
:1018500080B586B000AF07F1080300221A605A6015
:101860009A60DA603B4600221A605A601E4B1F4A9B
:101870001A601D4BA7225A601B4B00229A601A4B1C
:101880004FF6FE72DA60184B00221A61164B0022E6
:101890005A61154B00229A61134802F0B9FC0346C5
:1018A000002B01D000F0DAF94FF48053BB6007F150
:1018B000080319460C4802F063FD0346002B01D0D3
:1018C00000F0CCF900233B6000237B603B461946C7
:1018D000054802F063FF0346002B01D000F0BEF97B
:1018E00000BF1837BD4680BDA003002000000140A6
:1018F00080B500AF114B124A1A60104B4FF4E13221
:101900005A600E4B00229A600C4B0022DA600B4B9F
:1019100000221A61094B0C225A61084B00229A617D
:10192000064B0022DA61054802F0B4FF0346002BA3
:1019300001D000F093F900BF80BD00BFE803002094
:101940000010014080B500AF114B124A1A60104BD5
:101950004FF4E1225A600E4B00229A600C4B002299
:10196000DA600B4B00221A61094B0C225A61084BBA
:1019700000229A61064B0022DA61054802F08AFFD4
:101980000346002B01D000F069F900BF80BD00BF05
:10199000300400200044004080B58CB000AF07F157
:1019A0001C0300221A605A609A60DA601A610023F0
:1019B000BB616B4B1B6B6A4A43F080031363684B3C
:1019C0001B6B03F08003BB61BB6900237B61644B2D
:1019D0001B6B634A43F001031363614B1B6B03F002
:1019E00001037B617B6900233B615D4B1B6B5C4AA0
:1019F00043F0040313635A4B1B6B03F004033B6176
:101A00003B690023FB60564B1B6B554A43F00203B6
:101A10001363534B1B6B03F00203FB60FB68002353
:101A2000BB604F4B1B6B4E4A43F0100313634C4B90
:101A30001B6B03F01003BB60BB6800237B60484B4B
:101A40001B6B474A43F008031363454B1B6B03F0C2
:101A500008037B607B6800224FF4F071414801F07D
:101A6000E3FD002241F6F0713F4801F0DDFD002268
:101A700043F63B013D4801F0D7FD00224FF4FF4102
:101A80003B4801F0D1FD0022F7213A4801F0CCFD9E
:101A90004FF4F073FB6101233B6200237B62002360
:101AA000BB6207F11C0319462E4801F021FC41F6E8
:101AB000F073FB6101233B6200237B620023BB6266
:101AC00007F11C031946284801F012FC43F63B03BA
:101AD000FB6101233B6200237B620023BB6207F1B1
:101AE0001C031946214801F003FC4FF4FF43FB613E
:101AF00001233B6200237B620023BB6207F11C03CE
:101B000019461B4801F0F4FB4FF44043FB610023EE
:101B10003B6200237B6207F11C031946134801F066
:101B2000E7FB4FF47C53FB6100233B6200237B62A5
:101B300007F11C0319460F4801F0DAFBF723FB619C
:101B400001233B6200237B620023BB6207F11C037D
:101B50001946084801F0CCFB00BF3037BD4680BDB8
:101B60000038024000000240000802400004024029
:101B700000100240000C024080B582B000AF7860D7
:101B80000B467B807B681A680A4B1B689A420CD113
:101B9000094803F029FE64220021074805F0C5FC2E
:101BA00064220549034802F0C5FE00BF0837BD4660
:101BB00080BD00BF300400207804002080B582B0D2
:101BC00000AF7860064B074A0021074800F074FE1A
:101BD000064B01221A7000BF0837BD4680BD00BF0A
:101BE00010050020F4040020240300201C05002020
:101BF00080B586B000AFF860B9607A6000237B6181
:101C000009E07B69BA6813441B781846FFF746FC65
:101C10007B6901337B617A697B689A42F1DB7B687F
:101C200018461837BD4680BD80B483B000AF034668
:101C3000FB80094B1B6800225A6200BF064B1B68E1
:101C40005A6AFB889A42F9D300BF00BF0C37BD46E1
:101C50005DF8047B704700BFA003002080B400AF94
:101C600072B600BF00BFFDE780B483B000AF0023B1
:101C70007B60104B5B6C0F4A43F4804353640D4B05
:101C80005B6C03F480437B607B6800233B60094B03
:101C90001B6C084A43F080531364064B1B6C03F023
:101CA00080533B603B6800BF0C37BD465DF8047B4A
:101CB000704700BF0038024080B58AB000AF78603E
:101CC00007F1140300221A605A609A60DA601A6100
:101CD0007B681B68214A93423CD100233B61204B27
:101CE0001B6C1F4A43F0007313641D4B1B6C03F005
:101CF00000733B613B690023FB60194B1B6B184A67
:101D000043F001031363164B1B6B03F00103FB60ED
:101D1000FB684FF4C0537B610223BB610023FB616E
:101D200003233B6209237B6207F1140319460D4824
:101D300001F0DEFA00220021142001F010FA142034
:101D400001F029FA00220021152001F008FA1520DF
:101D500001F021FA00BF2837BD4680BD0064004075
:101D6000003802400000024080B58AB000AF7860C1
:101D700007F1140300221A605A609A60DA601A614F
:101D80007B681B68194A93422BD100233B61184B97
:101D90001B6B174A43F002031363154B1B6B03F0D5
:101DA00002033B613B69C0237B611223BB610023BB
:101DB000FB6103233B6204237B6207F11403194692
:101DC0000C4801F095FA0023FB60094B1B6C084A94
:101DD00043F400131364064B1B6C03F40013FB6005
:101DE000FB6800BF2837BD4680BD00BF00540040DF
:101DF000003802400004024080B485B000AF786033
:101E00007B681B680B4A93420DD10023FB600A4B91
:101E10005B6C094A43F001035364074B5B6C03F0AE
:101E20000103FB60FB6800BF1437BD465DF8047B0F
:101E3000704700BF000001400038024080B58CB000
:101E400000AF786007F11C0300221A605A609A60A4
:101E5000DA601A617B681B68364A93422DD10023F1
:101E6000BB61354B5B6C344A43F010035364324B17
:101E70005B6C03F01003BB61BB6900237B612E4BDD
:101E80001B6B2D4A43F0010313632B4B1B6B03F0B9
:101E900001037B617B694FF4C063FB6102233B62FA
:101EA00000237B620323BB620723FB6207F11C0351
:101EB0001946224801F01CFA38E07B681B68204A6A
:101EC000934233D100233B611B4B1B6C1A4A43F4F2
:101ED00000331364184B1B6C03F400333B613B6904
:101EE0000023FB60144B1B6B134A43F00103136385
:101EF000114B1B6B03F00103FB60FB680C23FB61C0
:101F000002233B6200237B620323BB620723FB6245
:101F100007F11C031946094801F0EAF900220021E3
:101F2000262001F01CF9262001F035F900BF3037DA
:101F3000BD4680BD00100140003802400000024054
:101F40000044004080B400AF00BFFDE780B400AFA4
:101F500000BFFDE780B400AF00BFFDE780B400AF75
:101F600000BFFDE780B400AF00BFFDE780B400AF65
:101F700000BFBD465DF8047B704780B400AF00BF72
:101F8000BD465DF8047B704780B400AF00BFBD461E
:101F90005DF8047B704780B500AF00F059F900BFD1
:101FA00080BD000080B500AF024800F0CDFD00BF4D
:101FB00080BD00BF2403002080B500AF024800F0C0
:101FC000C3FD00BF80BD00BF2403002080B500AF6B
:101FD000024802F00DFD00BF80BD00BF30040020AC
:101FE00080B400AF01231846BD465DF8047B7047FE
:101FF00080B582B000AF7860396005F067FB0346BA
:1020000016221A604FF0FF3318460837BD4680BDD0
:1020100080B582B000AF78604FF0FF317868FFF78D
:10202000E7FF00BFFDE780B586B000AFF860B9609C
:102030007A6000237B610AE0AFF300800146BB6851
:102040005A1CBA60CAB21A707B6901337B617A6923
:102050007B689A42F0DB7B6818461837BD4680BD26
:1020600080B483B000AF78604FF0FF3318460C3770
:10207000BD465DF8047B704780B483B000AF7860E4
:1020800039603B684FF400525A60002318460C3701
:10209000BD465DF8047B704780B483B000AF7860C4
:1020A000012318460C37BD465DF8047B704780B4A9
:1020B00085B000AFF860B9607A6000231846143725
:1020C000BD465DF8047B704780B586B000AF786090
:1020D000144A154BD31A7B617B693B61134B1B6818
:1020E000002B02D1114B124A1A60104B1A687B6800
:1020F00013443A699A4207D205F0E8FA03460C22E3
:102100001A604FF0FF3309E0084B1B68FB60074B78
:102110001A687B681344054A1360FB681846183731
:10212000BD4680BD00000220000400002005002004
:102130004007002080B400AF064BD3F88830054A32
:1021400043F47003C2F8883000BFBD465DF8047BDD
:10215000704700BF00ED00E0DFF834D0FFF7EAFF82
:102160000C480D490D4A002302E0D458C4500433F2
:10217000C4188C42F9D30A4A0A4C002301E01360C8
:102180000432A242FBD305F0A7FAFFF7AFF970477C
:102190000000022000000020B8020020BCA50008BA
:1021A000B80200203C070020FEE7000080B500AF29
:1021B0000E4B1B680D4A43F4007313600B4B1B68F6
:1021C0000A4A43F480631360084B1B68074A43F4D0
:1021D00080731360032000F0B7FF0F2000F008F8B1
:1021E000FFF742FD0023184680BD00BF003C0240BF
:1021F00080B582B000AF7860124B1A68124B1B7822
:1022000019464FF47A73B3FBF1F3B2FBF3F31846BC
:1022100000F0CFFF0346002B01D001230EE07B68C6
:102220000F2B0AD8002279684FF0FF3000F097FF9B
:10223000064A7B681360002300E001231846083734
:10224000BD4680BDE4000020EC000020E800002036
:1022500080B400AF064B1B781A46064B1B6813442C
:10226000044A136000BFBD465DF8047B704700BFA1
:10227000EC0000202405002080B400AF034B1B6855
:102280001846BD465DF8047B704700BF240500205A
:1022900080B584B000AF7860FFF7EEFFB8607B6870
:1022A000FB60FB68B3F1FF3F05D00A4B1B781A4671
:1022B000FB681344FB6000BFFFF7DEFF0246BB680C
:1022C000D31AFA689A42F7D800BF00BF1037BD464C
:1022D00080BD00BFEC00002080B584B000AF786006
:1022E0007B68002B01D10123EDE07B6893F820305F
:1022F000DBB2002B02D17868FFF7DEFC7B681B683D
:102300001A687B681B6842F001021A60FFF7B4FF8D
:10231000F86012E0FFF7B0FF0246FB68D31A0A2B01
:102320000BD97B685B6A43F400327B685A627B6836
:10233000052283F820200123C5E07B681B685B68C9
:1023400003F00103002BE5D07B681B681A687B68EB
:102350001B6822F002021A60FFF78EFFF86012E09D
:10236000FFF78AFF0246FB68D31A0A2B0BD97B685A
:102370005B6A43F400327B685A627B68052283F80B
:10238000202001239FE07B681B685B6803F0020349
:10239000002BE5D17B681B7E012B08D17B681B6875
:1023A0001A687B681B6842F080021A6007E07B684D
:1023B0001B681A687B681B6822F080021A607B68C1
:1023C0005B7E012B08D17B681B681A687B681B68E1
:1023D00042F040021A6007E07B681B681A687B685D
:1023E0001B6822F040021A607B689B7E012B08D19B
:1023F0007B681B681A687B681B6842F020021A60C1
:1024000007E07B681B681A687B681B6822F0200263
:102410001A607B68DB7E012B08D17B681B681A6819
:102420007B681B6822F010021A6007E07B681B685B
:102430001A687B681B6842F010021A607B681B7F79
:10244000012B08D17B681B681A687B681B6842F007
:1024500008021A6007E07B681B681A687B681B68C3
:1024600022F008021A607B685B7F012B08D17B6831
:102470001B681A687B681B6842F004021A6007E058
:102480007B681B681A687B681B6822F004021A606C
:102490007B689A687B68DB681A437B681B691A4310
:1024A0007B685B6942EA03017B685B685A1E7B6854
:1024B0001B680A43DA617B6800225A627B6801224A
:1024C00083F82020002318461037BD4680BD000049
:1024D00080B487B000AF786039607B681B687B612F
:1024E0007B6893F82030FB74FB7C012B03D0FB7CD2
:1024F000022B40F0BE80654B7B617B69D3F80032D4
:1025000043F001027B69C3F800227B69D3F80032F3
:1025100023F47C527B69C3F800227B69D3F8002244
:102520003B685B6A1B021A437B69C3F800223B6865
:102530005B6903F01F03012202FA03F3FB607B696E
:10254000D3F81C22FB68DB431A407B69C3F81C22CA
:102550003B68DB69002B23D17B69D3F80C22FB6835
:10256000DB431A407B69C3F80C223B68DB68190423
:102570003B685B689BB23A68526919437B69483291
:1025800043F832103B689B6819043B681B689AB299
:102590003B685B690A4379694833DB000B445A6046
:1025A0003B68DB69012B22D17B69D3F80C22FB68E5
:1025B0001A437B69C3F80C223B681B6819043B680B
:1025C0005B689BB23A68526919437B69483243F8A9
:1025D00032103B689B6819043B68DB689AB23B6821
:1025E0005B690A4379694833DB000B445A603B68F6
:1025F0009B69002B09D17B69D3F80422FB68DB437C
:102600001A407B69C3F8042207E07B69D3F80422EF
:10261000FB681A437B69C3F804223B681B69002BE3
:1026200009D17B69D3F81422FB68DB431A407B692C
:10263000C3F8142207E07B69D3F81422FB681A431D
:102640007B69C3F814223B681B6A012B07D17B69A5
:10265000D3F81C22FB681A437B69C3F81C227B69F0
:10266000D3F8003223F001027B69C3F80022002373
:1026700006E07B685B6A43F480227B685A62012330
:1026800018461C37BD465DF8047B70470064004067
:1026900080B584B000AF78607B6893F82030DBB2FF
:1026A000012B2ED17B68022283F820207B681B68D7
:1026B0001A687B681B6822F001021A60FFF7DCFDD4
:1026C000F86012E0FFF7D8FD0246FB68D31A0A2B28
:1026D0000BD97B685B6A43F400327B685A627B6883
:1026E000052283F82020012312E07B681B685B68C9
:1026F00003F00103002BE5D17B6800225A6200231E
:1027000006E07B685B6A43F400227B685A6201231F
:1027100018461037BD4680BD80B489B000AFF86060
:10272000B9607A603B60FB6893F82030FB77FB6808
:102730001B689B68BB61FB7F012B03D0FB7F022BD7
:1027400040F0AD80BB6903F08063002B0AD1BB6908
:1027500003F00063002B05D1BB6903F08053002B0D
:1027600000F09580BB691B0E03F003037B6101221F
:102770007B699A403B681A60BB689B68002B0DD14F
:10278000BB681B685A05BB68DB68F96809681A43AF
:102790007B6918331B010B441A600FE0BB685B6850
:1027A000DA00BB689B681A43BB68DB68F968096894
:1027B0001A437B6918331B010B441A60FB681968C4
:1027C000BB681A697B6918331B010B4404331A6018
:1027D000BB681B7D012B11D1FB681A687B6918331C
:1027E0001B01134404331B68FA68116843F48072B8
:1027F0007B6918331B010B4404331A607B68073371
:102800001B781A067B6806331B781B041A437B6807
:1028100005331B781B0213437A6804321278104682
:10282000FA68116843EA00027B691B010B4403F557
:10283000C6731A607B6803331B781A067B68023301
:102840001B781B041A437B6801331B781B0213435C
:102850007A6812781046FA68116843EA00027B69C8
:102860001B010B4403F5C4731A60FB681A687B698B
:1028700018331B0113441B68FA68116843F0010206
:102880007B6918331B010B441A6000230EE0FB68C0
:102890005B6A43F40012FB685A62012306E0FB689E
:1028A0005B6A43F48022FB685A620123184624378E
:1028B000BD465DF8047B704780B487B000AFF86018
:1028C000B9607A603B60FB6893F82030FB75FB7D54
:1028D000012B03D0FB7D022B40F00381BB68002B52
:1028E0000ED1FB681B68DB6803F00303002B16D1D5
:1028F000FB685B6A43F40012FB685A620123F7E04D
:10290000FB681B681B6903F00303002B07D1FB68FE
:102910005B6A43F40012FB685A620123E8E0FB683B
:102920001A68BB681B331B0113441B6803F00402C5
:102930007B689A607B689B68002B0CD1FB681A68E7
:10294000BB681B331B0113441B685B0DC3F30A02F6
:102950007B681A600BE0FB681A68BB681B331B01BD
:1029600013441B68DB0823F060427B685A60FB68F5
:102970001A68BB681B331B0113441B6803F0020277
:102980007B68DA60FB681A68BB681B331B01134461
:1029900004331B6803F00803002B03D07B68082274
:1029A0001A610BE0FB681A68BB681B331B011344F8
:1029B00004331B6803F00F027B681A61FB681A6816
:1029C000BB681B331B01134404331B681B0ADAB2B8
:1029D0007B689A61FB681A68BB681B331B01134450
:1029E00004331B681B0C9AB27B685A61FB681A6837
:1029F000BB681B01134403F5DC731B68DAB23B6848
:102A00001A70FB681A68BB681B01134403F5DC737A
:102A10001B681A0A3B680133D2B21A70FB681A6845
:102A2000BB681B01134403F5DC731B681A0C3B687D
:102A30000233D2B21A70FB681A68BB681B011344D8
:102A400003F5DC731B681A0E3B680333D2B21A70AD
:102A5000FB681A68BB681B01134403F5DE731A6830
:102A60003B680433D2B21A70FB681A68BB681B015A
:102A7000134403F5DE731B681A0A3B680533D2B2B0
:102A80001A70FB681A68BB681B01134403F5DE73F8
:102A90001B681A0C3B680633D2B21A70FB681A68BE
:102AA000BB681B01134403F5DE731B681A0E3B68F9
:102AB0000733D2B21A70BB68002B08D1FB681B68C1
:102AC000DA68FB681B6842F02002DA6007E0FB6806
:102AD0001B681A69FB681B6842F020021A61002318
:102AE00006E0FB685B6A43F48022FB685A620123BC
:102AF00018461C37BD465DF8047B704780B485B02E
:102B000000AF786039607B6893F82030FB73FB7B03
:102B1000012B02D0FB7B022B09D17B681B68596912
:102B20007B681B683A680A435A61002306E07B68A9
:102B30005B6A43F480227B685A620123184614378B
:102B4000BD465DF8047B704780B58AB000AF786001
:102B500000237B627B681B685B693B627B681B6848
:102B60005B68FB617B681B689B68BB617B681B685B
:102B7000DB687B617B681B681B693B617B681B684A
:102B80009B69FB603B6A03F00103002B7CD0BB69AF
:102B900003F00103002B23D07B681B6801229A609D
:102BA000BB6903F00203002B03D0786800F083F9BF
:102BB00016E0BB6903F00403002B04D07B6A43F4E6
:102BC00000637B620CE0BB6903F00803002B04D0B8
:102BD0007B6A43F480537B6202E0786800F089F9F5
:102BE000BB6903F48073002B24D07B681B684FF40F
:102BF00080729A60BB6903F40073002B03D078687D
:102C000000F063F916E0BB6903F48063002B04D085
:102C10007B6A43F400537B620CE0BB6903F40063FE
:102C2000002B04D07B6A43F480437B6202E0786827
:102C300000F069F9BB6903F48033002B24D07B6872
:102C40001B684FF480329A60BB6903F40033002B99
:102C500003D0786800F043F916E0BB6903F48023E1
:102C6000002B04D07B6A43F400437B620CE0BB6919
:102C700003F40023002B04D07B6A43F480337B628F
:102C800002E0786800F049F93B6A03F00803002B82
:102C90000CD07B6903F01003002B07D07B6A43F450
:102CA00000737B627B681B681022DA603B6A03F06A
:102CB0000403002B0BD07B6903F00803002B06D024
:102CC0007B681B680822DA60786800F030F93B6A9C
:102CD00003F00203002B09D07B681B68DB6803F05C
:102CE0000303002B02D07868FEF768FF3B6A03F00D
:102CF0004003002B0CD03B6903F01003002B07D0DE
:102D00007B6A43F480637B627B681B6810221A61D4
:102D10003B6A03F02003002B0BD03B6903F0080350
:102D2000002B06D07B681B6808221A61786800F0C7
:102D300012F93B6A03F01003002B09D07B681B6873
:102D40001B6903F00303002B02D0786800F0F9F848
:102D50003B6A03F40033002B0BD0FB6903F0100334
:102D6000002B06D07B681B6810225A60786800F040
:102D7000FCF83B6A03F48033002B0BD0FB6903F0B3
:102D80000803002B06D07B681B6808225A6078680D
:102D900000F0F5F83B6A03F40043002B7BD0FB699D
:102DA00003F00403002B72D03B6A03F48073002B02
:102DB00008D0FB6803F00103002B03D07B6A43F0CB
:102DC00001037B623B6A03F40073002B08D0FB68AD
:102DD00003F00203002B03D07B6A43F002037B6203
:102DE0003B6A03F48063002B08D0FB6803F0040304
:102DF000002B03D07B6A43F004037B623B6A03F43D
:102E00000063002B43D0FB6803F07003002B3ED01F
:102E1000FB6803F07003602B2BD0602B2ED8502B57
:102E200022D0502B2AD8402B19D0402B26D8302B1B
:102E300010D0302B22D8102B02D0202B05D01DE033
:102E40007B6A43F008037B6219E07B6A43F010035E
:102E50007B6214E07B6A43F020037B620FE07B6AB5
:102E600043F040037B620AE07B6A43F080037B62AD
:102E700005E07B6A43F480737B6200E000BF7B68FF
:102E80001B689A697B681B6822F070029A617B68F4
:102E90001B6804225A607B6A002B08D07B685A6A40
:102EA0007B6A1A437B685A62786800F072F800BF48
:102EB0002837BD4680BD80B483B000AF786000BFC6
:102EC0000C37BD465DF8047B704780B483B000AF1B
:102ED000786000BF0C37BD465DF8047B704780B456
:102EE00083B000AF786000BF0C37BD465DF8047B4F
:102EF000704780B483B000AF786000BF0C37BD4628
:102F00005DF8047B704780B483B000AF786000BF89
:102F10000C37BD465DF8047B704780B483B000AFCA
:102F2000786000BF0C37BD465DF8047B704780B405
:102F300083B000AF786000BF0C37BD465DF8047BFE
:102F4000704780B483B000AF786000BF0C37BD46D7
:102F50005DF8047B704780B483B000AF786000BF39
:102F60000C37BD465DF8047B704780B483B000AF7A
:102F7000786000BF0C37BD465DF8047B704780B4B5
:102F800083B000AF786000BF0C37BD465DF8047BAE
:102F9000704780B483B000AF786000BF0C37BD4687
:102FA0005DF8047B7047000080B485B000AF7860A6
:102FB0007B6803F00703FB600C4BDB68BB60BA68FF
:102FC0004FF6FF031340BB60FB681A02BB68134354
:102FD00043F0BF6343F40033BB60044ABB68D36073
:102FE00000BF1437BD465DF8047B704700ED00E07C
:102FF00080B400AF044BDB681B0A03F007031846DC
:10300000BD465DF8047B704700ED00E080B483B0FE
:1030100000AF0346FB7197F90730002B0BDBFB7900
:1030200003F01F02074997F907305B09012000FAF6
:1030300002F241F8232000BF0C37BD465DF8047B47
:10304000704700BF00E100E080B483B000AF0346EA
:103050003960FB7197F90730002B0ADB3B68DAB265
:103060000C4997F907301201D2B20B4483F80023C0
:103070000AE03B68DAB20849FB7903F00F03043B2E
:103080001201D2B20B441A7600BF0C37BD465DF870
:10309000047B704700E100E000ED00E080B489B0FF
:1030A00000AFF860B9607A60FB6803F00703FB616A
:1030B000FB69C3F10703042B28BF0423BB61FB6931
:1030C0000433062B02D9FB69033B00E000237B613C
:1030D0004FF0FF32BB6902FA03F3DA43BB681A40D0
:1030E0007B699A404FF0FF317B6901FA03F3D943C2
:1030F0007B680B40134318462437BD465DF8047BBC
:103100007047000080B582B000AF78607B68013BFB
:10311000B3F1807F01D301230FE00A4A7B68013BB2
:1031200053600F214FF0FF30FFF78EFF054B002259
:103130009A60044B07221A60002318460837BD46E0
:1031400080BD00BF10E000E080B582B000AF7860C5
:103150007868FFF729FF00BF0837BD4680BD80B5FE
:1031600086B000AF0346B9607A60FB7300237B61D1
:10317000FFF73EFF78617A68B9687869FFF78EFFDC
:10318000024697F90F3011461846FFF75DFF00BF62
:103190001837BD4680BD80B582B000AF0346FB71D5
:1031A00097F907301846FFF731FF00BF0837BD46D3
:1031B00080BD80B582B000AF78607868FFF7A2FF6D
:1031C000034618460837BD4680BD80B584B000AFC1
:1031D00078607B689B6DFB60FFF74EF8B8607B689A
:1031E00093F83530DBB2022B08D07B6880225A6519
:1031F0007B68002283F83420012352E07B681B683F
:103200001A687B681B6822F016021A607B681B68CC
:103210005A697B681B6822F080025A617B681B6CCC
:10322000002B03D17B689B6C002B07D07B681B684D
:103230001A687B681B6822F008021A607B681B68AA
:103240001A687B681B6822F001021A6013E0FFF71E
:1032500013F80246BB68D31A052B0CD97B682022D1
:103260005A657B68032283F835207B68002283F847
:103270003420032315E07B681B681B6803F00103FF
:10328000002BE4D17B68DB6D3F229A40FB689A609B
:103290007B68012283F835207B68002283F8342084
:1032A000002318461037BD4680BD80B483B000AF00
:1032B00078607B6893F83530DBB2022B04D07B68F2
:1032C00080225A6501230CE07B68052283F83520B3
:1032D0007B681B681A687B681B6822F001021A6011
:1032E000002318460C37BD465DF8047B704700008C
:1032F00080B489B000AF7860396000237B6100231F
:103300003B610023BB610023FB616BE10122FB6990
:1033100002FA03F37B613B681B687A6913403B61E7
:103320003A697B699A4240F05A813B685B6803F0D6
:103330000303012B05D03B685B6803F00303022BFA
:1033400030D17B689B68BB61FB695B00032202FA9A
:1033500003F3DB43BA691340BB613B68DA68FB697E
:103360005B0002FA03F3BA691343BB617B68BA6975
:103370009A607B685B68BB610122FB6902FA03F318
:10338000DB43BA691340BB613B685B681B0903F010
:103390000102FB6902FA03F3BA691343BB617B685C
:1033A000BA695A603B685B6803F00303032B17D0CC
:1033B0007B68DB68BB61FB695B00032202FA03F3F5
:1033C000DB43BA691340BB613B689A68FB695B00E9
:1033D00002FA03F3BA691343BB617B68BA69DA6026
:1033E0003B685B6803F00303022B23D1FB69DA0817
:1033F0007B68083253F82230BB61FB6903F0070396
:103400009B000F2202FA03F3DB43BA691340BB614E
:103410003B681A69FB6903F007039B0002FA03F398
:10342000BA691343BB61FB69DA087B680832B96982
:1034300043F822107B681B68BB61FB695B000322B9
:1034400002FA03F3DB43BA691340BB613B685B6874
:1034500003F00302FB695B0002FA03F3BA6913434A
:10346000BB617B68BA691A603B685B6803F44033F0
:10347000002B00F0B4800023FB60604B5B6C5F4A64
:1034800043F4804353645D4B5B6C03F48043FB6007
:10349000FB685B4AFB699B08023352F82330BB612F
:1034A000FB6903F003039B000F2202FA03F3DB43E3
:1034B000BA691340BB617B68524A93422BD07B6848
:1034C000514A934225D07B68504A93421FD07B6873
:1034D0004F4A934219D07B684E4A934213D07B687F
:1034E0004D4A93420DD07B684C4A934207D07B688B
:1034F0004B4A934201D107230EE008230CE0062338
:103500000AE0052308E0042306E0032304E0022385
:1035100002E0012300E00023FA6902F003029200B6
:103520009340BA691343BB613549FB699B08023379
:10353000BA6941F823203B4B9B68BB613B69DB4385
:10354000BA691340BB613B685B6803F48013002BCE
:1035500003D0BA693B691343BB61324ABB699360CC
:10356000304BDB68BB613B69DB43BA691340BB612D
:103570003B685B6803F40013002B03D0BA693B6916
:103580001343BB61274ABB69D360264B5B68BB61B1
:103590003B69DB43BA691340BB613B685B6803F47A
:1035A0000033002B03D0BA693B691343BB611D4A4A
:1035B000BB6953601B4B1B68BB613B69DB43BA694A
:1035C0001340BB613B685B6803F48033002B03D07E
:1035D000BA693B691343BB61124ABB691360FB695B
:1035E0000133FB61FB690F2B7FF690AE00BF00BF7C
:1035F0002437BD465DF8047B704700BF00380240A9
:10360000003801400000024000040240000802406F
:10361000000C02400010024000140240001802405A
:10362000001C0240003C014080B483B000AF7860D1
:103630000B467B8013467B707B78002B03D07A8807
:103640007B689A6103E07B881A047B689A6100BFFB
:103650000C37BD465DF8047B7047000080B584B030
:1036600000AF78607B68002B01D101232BE17B68E0
:1036700093F83D30DBB2002B06D17B68002283F843
:103680003C207868FEF770FB7B68242283F83D209D
:103690007B681B681A687B681B6822F001021A604D
:1036A0007B681B681A687B681B6842F400421A60DA
:1036B0007B681B681A687B681B6822F400421A60EA
:1036C00000F07EFDF8607B685B68814A934207D812
:1036D000FB68804A934294BF01230023DBB206E0DB
:1036E000FB687D4A934294BF01230023DBB2002B89
:1036F00001D00123E7E0FB68784AA2FB03239B0C7F
:10370000BB607B681B685B6823F03F017B681B68BC
:10371000BA680A435A607B681B681B6A23F03F0142
:103720007B685B686A4A934202D8BB68013309E050
:10373000BB684FF4967202FB03F3694AA2FB0323B2
:103740009B0901337A6812680B4313627B681B681C
:10375000DB6923F44F4222F0FF027B685B685C491F
:103760008B4219D8FB68591E7B685B685B00B1FB14
:10377000F3F3591C40F6FC730B40002B0AD0FB6896
:10378000591E7B685B685B00B1FBF3F30133C3F345
:103790000B0351E004234FE07B689B68002B11D1A1
:1037A000FB68581E7B6859680B465B000B44B0FBF6
:1037B000F3F30133C3F30B03002B0CBF01230023EE
:1037C000DBB212E0FB68581E7B6859680B469B0011
:1037D0000B4499000B44B0FBF3F30133C3F30B0329
:1037E000002B0CBF01230023DBB2002B01D00123EF
:1037F00022E07B689B68002B0ED1FB68581E7B681B
:1038000059680B465B000B44B0FBF3F30133C3F381
:103810000B0343F400430FE0FB68581E7B685968B4
:103820000B469B000B4499000B44B0FBF3F30133B0
:10383000C3F30B0343F44043796809681343CB6136
:103840007B681B681B6823F0C0017B68DA697B68B2
:103850001B6A1A437B681B680A431A607B681B68F3
:103860009B6823F4034323F0FF037A6811697A68A5
:10387000D26811437A6812680B4393607B681B68B7
:10388000DB6823F0FF017B685A697B689B691A43F8
:103890007B681B680A43DA607B681B681A687B6870
:1038A0001B6842F001021A607B6800221A647B6880
:1038B000202283F83D207B6800221A637B68002267
:1038C00083F83E20002318461037BD4680BD00BF58
:1038D000A08601007F841E00FF083D0083DE1B439D
:1038E000D34D621080B586B000AF78607B68002B46
:1038F00001D1012367E27B681B6803F00103002B01
:1039000075D0884B9B6803F00C03042B0CD0854BBF
:103910009B6803F00C03082B12D1824B5B6803F405
:103920008003B3F5800F0BD17E4B1B6803F400338B
:10393000002B5BD07B685B68002B57D1012342E2F0
:103940007B685B68B3F5803F06D1764B1B68754A90
:1039500043F4803313601DE07B685B68B3F5A02FF0
:103960000CD1704B1B686F4A43F4802313606D4B7E
:103970001B686C4A43F4803313600BE0694B1B688F
:10398000684A23F480331360664B1B68654A23F44E
:10399000802313607B685B68002B13D0FEF76CFC00
:1039A000386108E0FEF768FC02463B69D31A642BD5
:1039B00001D9032307E25B4B1B6803F40033002BA0
:1039C000F0D014E0FEF758FC386108E0FEF754FC34
:1039D00002463B69D31A642B01D90323F3E1514B0F
:1039E0001B6803F40033002BF0D100E000BF7B68BC
:1039F0001B6803F00203002B63D04A4B9B6803F063
:103A00000C03002B0BD0474B9B6803F00C03082BD7
:103A10001CD1444B5B6803F48003002B16D1414B4F
:103A20001B6803F00203002B05D07B68DB68012BC9
:103A300001D00123C7E13B4B1B6823F0F8027B68F0
:103A40001B69DB00374913430B603AE07B68DB6896
:103A5000002B20D0344B01221A60FEF70DFC386198
:103A600008E0FEF709FC02463B69D31A022B01D994
:103A70000323A8E12B4B1B6803F00203002BF0D0BB
:103A8000284B1B6823F0F8027B681B69DB00254983
:103A900013430B6015E0244B00221A60FEF7ECFB89
:103AA000386108E0FEF7E8FB02463B69D31A022BB7
:103AB00001D9032387E11B4B1B6803F00203002B92
:103AC000F0D17B681B6803F00803002B36D07B68BD
:103AD0005B69002B16D0154B01221A60FEF7CCFB58
:103AE000386108E0FEF7C8FB02463B69D31A022B97
:103AF00001D9032367E10B4B5B6F03F00203002B3B
:103B0000F0D01BE0094B00221A60FEF7B5FB3861CC
:103B10000EE0FEF7B1FB02463B69D31A022B07D930
:103B2000032350E10038024000004742800E474224
:103B3000884B5B6F03F00203002BEAD17B681B68A4
:103B400003F00403002B00F097800023FB75814BEA
:103B50001B6C03F08053002B0FD10023BB607D4B07
:103B60001B6C7C4A43F0805313647A4B1B6C03F04C
:103B70008053BB60BB680123FB75774B1B6803F464
:103B80008073002B18D1744B1B68734A43F4807305
:103B90001360FEF771FB386108E0FEF76DFB02462B
:103BA0003B69D31A022B01D903230CE16A4B1B6832
:103BB00003F48073002BF0D07B689B68012B06D147
:103BC000644B1B6F634A43F0010313671CE07B687F
:103BD0009B68052B0CD15F4B1B6F5E4A43F00403BF
:103BE00013675C4B1B6F5B4A43F0010313670BE0E9
:103BF000584B1B6F574A23F001031367554B1B6F3C
:103C0000544A23F0040313677B689B68002B15D08C
:103C1000FEF732FB38610AE0FEF72EFB02463B69F5
:103C2000D31A41F28832934201D90323CBE0494BA6
:103C30001B6F03F00203002BEED014E0FEF71CFB19
:103C400038610AE0FEF718FB02463B69D31A41F2DD
:103C50008832934201D90323B5E03E4B1B6F03F03A
:103C60000203002BEED1FB7D012B05D1394B1B6CE0
:103C7000384A23F0805313647B689B69002B00F063
:103C8000A180344B9B6803F00C03082B5CD07B684D
:103C90009B69022B41D1314B00221A60FEF7ECFAEE
:103CA000386108E0FEF7E8FA02463B69D31A022BB6
:103CB00001D9032387E0274B1B6803F00073002B17
:103CC000F0D17B68DA697B681B6A1A437B685B6AA0
:103CD0009B011A437B689B6A5B08013B1B041A43E8
:103CE0007B68DB6A1B061B4913434B601B4B01229D
:103CF0001A60FEF7C1FA386108E0FEF7BDFA024625
:103D00003B69D31A022B01D903235CE0114B1B68DA
:103D100003F00073002BF0D054E0104B00221A6027
:103D2000FEF7AAFA386108E0FEF7A6FA02463B69F8
:103D3000D31A022B01D9032345E0064B1B6803F07D
:103D40000073002BF0D13DE07B689B69012B07D10C
:103D5000012338E000380240007000406000474214
:103D60001B4B5B68FB607B689B69012B28D0FB6861
:103D700003F480027B68DB699A4221D1FB6803F07F
:103D80003F027B681B6A9A421AD1FA6847F6C073F1
:103D900013407A68526A9201934211D1FB6803F48E
:103DA00040327B689B6A5B08013B1B049A4207D147
:103DB000FB6803F070627B68DB6A1B069A4201D0E5
:103DC000012300E0002318461837BD4680BD00BF20
:103DD0000038024080B584B000AF786039607B68FD
:103DE000002B01D10123CCE0684B1B6803F00703D3
:103DF0003A689A420CD9654B3A68D2B21A70634B52
:103E00001B6803F007033A689A4201D00123B8E027
:103E10007B681B6803F00203002B20D07B681B68C3
:103E200003F00403002B05D0594B9B68584A43F418
:103E3000E05393607B681B6803F00803002B05D0F8
:103E4000534B9B68524A43F460439360504B9B68CA
:103E500023F0F0027B689B684D4913438B607B68BD
:103E60001B6803F00103002B44D07B685B68012BC7
:103E700007D1474B1B6803F40033002B19D10123F2
:103E80007FE07B685B68022B03D07B685B68032B59
:103E900007D13F4B1B6803F00073002B09D10123AE
:103EA0006FE03B4B1B6803F00203002B01D10123A1
:103EB00067E0374B9B6823F003027B685B683449FB
:103EC00013438B60FEF7D8F9F8600AE0FEF7D4F9E7
:103ED0000246FB68D31A41F28832934201D9032388
:103EE0004FE02B4B9B6803F00C027B685B689B00E8
:103EF0009A42EBD1254B1B6803F007033A689A42BC
:103F00000CD2224B3A68D2B21A70204B1B6803F0D5
:103F100007033A689A4201D0012332E07B681B68AC
:103F200003F00403002B08D0194B9B6823F4E052E4
:103F30007B68DB68164913438B607B681B6803F062
:103F40000803002B09D0124B9B6823F460427B6866
:103F50001B69DB000E4913438B6000F021F8024619
:103F60000B4B9B681B0903F00F030A49CB5C22FA39
:103F700003F3094A1360094B1B681846FEF738F92A
:103F8000002318461037BD4680BD00BF003C0240EC
:103F9000003802400CA10008E4000020E8000020E6
:103FA0002DE9B04F94B000AF00237B640023FB6485
:103FB00000233B640023BB64794B9B6803F00C0334
:103FC000082B0DD0082B00F2E180002B02D0042B2F
:103FD00003D0DBE0734BBB64DBE0724BBB64D8E027
:103FE0006F4B5B6803F03F037B646D4B5B6803F4CE
:103FF0008003002B63D06A4B5B689B090022BB6384
:10400000FA63BB6BC3F308033B6300237B63D7E90D
:104010000C4522462B464FF000004FF0000159019D
:1040200041EAD261500102460B462146511A3961DC
:10403000294663EB01037B614FF000024FF0000360
:10404000D7E904AB59468B01514643EA9163514687
:104050008A015146B2EB0108594663EB01094FF062
:1040600000024FF000034FEAC90343EA58734FEAD6
:10407000C80290469946234618EB0303BB602B46C3
:1040800049EB0303FB604FF000024FF00003D7E958
:10409000024529468B02214643EA915321468A0272
:1040A000104619467B6C0022BB62FA62D7E90A23EC
:1040B000FCF7EAFD02460B461346FB6458E0384B1A
:1040C0005B689B09002218461146C0F308033B6257
:1040D00000237B62D7E9088942464B464FF0000037
:1040E0004FF00001590141EAD261500102460B46EE
:1040F0004146B2EB010A494663EB010B4FF0000267
:104100004FF000034FEA8B1343EA9A634FEA8A1297
:10411000B2EB0A0463EB0B054FF000024FF0000313
:10412000EB0043EA5473E20014461D464346E3188D
:104130003B604B4645EB03037B604FF000024FF0C2
:104140000003D7E9004529468B02214643EA9153F3
:1041500021468A02104619467B6C0022BB61FA6137
:10416000D7E90623FCF790FD02460B461346FB6495
:104170000B4B5B681B0C03F0030301335B003B64D8
:10418000FA6C3B6CB2FBF3F3BB6402E0054BBB641F
:1041900000BFBB6C18465037BD46BDE8B08F00BFAE
:1041A000003802400024F40080B400AF034B1B68C9
:1041B0001846BD465DF8047B704700BFE400002050
:1041C00080B500AFFFF7F0FF0246054B9B689B0AE6
:1041D00003F007030349CB5C22FA03F3184680BDC2
:1041E000003802401CA1000880B500AFFFF7DCFFDB
:1041F0000246054B9B685B0B03F007030349CB5C4E
:1042000022FA03F3184680BD003802401CA10008C2
:1042100080B582B000AF78607B68002B01D10123AC
:1042200041E07B6893F83D30DBB2002B06D17B6820
:10423000002283F83C207868FDF7DEFD7B680222CF
:1042400083F83D207B681A687B6804331946104662
:1042500000F05EF97B68012283F846207B6801222A
:1042600083F83E207B68012283F83F207B6801228F
:1042700083F840207B68012283F841207B6801227B
:1042800083F842207B68012283F843207B68012267
:1042900083F844207B68012283F845207B68012253
:1042A00083F83D20002318460837BD4680BD000036
:1042B00080B485B000AF78607B6893F83D30DBB2A6
:1042C000012B01D0012346E07B68022283F83D20C8
:1042D0007B681B68234A934222D07B681B68B3F13A
:1042E000804F1DD07B681B681F4A934218D07B68A3
:1042F0001B681E4A934213D07B681B681C4A93427A
:104300000ED07B681B681B4A934209D07B681B68F0
:10431000194A934204D07B681B68184A934211D112
:104320007B681B689B6803F00703FB60FB68062B38
:1043300010D07B681B681A687B681B6842F001021A
:104340001A6007E07B681B681A687B681B6842F08C
:1043500001021A60002318461437BD465DF8047B3D
:10436000704700BF0000014000040040000800400A
:10437000000C0040000401400040014000180040D3
:1043800080B584B000AF786039600023FB737B6830
:1043900093F83C30012B01D10223B4E07B68012269
:1043A00083F83C207B68022283F83D207B681B68F1
:1043B0009B68BB60BB6823F07703BB60BB6823F4DA
:1043C0007F43BB607B681B68BA689A603B681B6868
:1043D000B3F5005F3ED0B3F5005F00F28780B3F520
:1043E000805F00F08680B3F5805F7FD8702B1AD095
:1043F000702B7BD8602B50D0602B77D8502B3CD0C3
:10440000502B73D8402B58D0402B6FD8302B64D012
:10441000302B6BD8202B60D0202B67D8002B5CD0A2
:10442000102B5AD062E07B6818683B6899683B683B
:104430005A683B68DB6800F091F97B681B689B68F1
:10444000BB60BB6843F07703BB607B681B68BA68DE
:104450009A604FE07B6818683B6899683B685A68C7
:104460003B68DB6800F07AF97B681B689A687B68B8
:104470001B6842F480429A603CE07B6818683B68A5
:1044800059683B68DB681A4600F0EEF87B681B68E9
:104490005021184600F047F92CE07B6818683B680B
:1044A00059683B68DB681A4600F00DF97B681B68A9
:1044B0006021184600F037F91CE07B6818683B68FB
:1044C00059683B68DB681A4600F0CEF87B681B68C9
:1044D0004021184600F027F90CE07B681A683B6819
:1044E0001B681946104600F01EF903E00123FB7318
:1044F00000E000BF7B68012283F83D207B6800223A
:1045000083F83C20FB7B18461037BD4680BD000079
:1045100080B485B000AF786039607B681B68FB6051
:104520007B68464A934213D07B68B3F1804F0FD02B
:104530007B68434A93420BD07B68424A934207D040
:104540007B68414A934203D07B68404A934208D13A
:10455000FB6823F07003FB603B685B68FA681343F9
:10456000FB607B68354A93422BD07B68B3F1804F68
:1045700027D07B68324A934223D07B68314A9342EA
:104580001FD07B68304A93421BD07B682F4A9342EE
:1045900017D07B682E4A934213D07B682D4A9342F2
:1045A0000FD07B682C4A93420BD07B682B4A9342F6
:1045B00007D07B682A4A934203D07B68294A9342FA
:1045C00008D1FB6823F44073FB603B68DB68FA6842
:1045D0001343FB60FB6823F080023B685B69134375
:1045E000FB607B68FA681A603B689A687B68DA62ED
:1045F0003B681A687B689A627B68104A934203D0D2
:104600007B68124A934203D13B681A697B681A633C
:104610007B6801225A617B681B6903F00103012B4F
:1046200005D17B681B6923F001027B681A6100BF1A
:104630001437BD465DF8047B704700BF00000140A1
:104640000004004000080040000C0040000401404D
:104650000040014000440140004801400018004073
:10466000001C00400020004080B487B000AFF8601C
:10467000B9607A60FB681B6A7B61FB681B6A23F088
:104680000102FB681A62FB689B693B613B6923F08E
:10469000F0033B617B681B013A6913433B617B6913
:1046A00023F00A037B617A69BB6813437B61FB6873
:1046B0003A699A61FB687A691A6200BF1C37BD4685
:1046C0005DF8047B704780B487B000AFF860B960D4
:1046D0007A60FB681B6A7B61FB681B6A23F010022F
:1046E000FB681A62FB689B693B613B6923F470437A
:1046F0003B617B681B033A6913433B617B6923F091
:10470000A0037B61BB681B017A6913437B61FB6873
:104710003A699A61FB687A691A6200BF1C37BD4624
:104720005DF8047B704780B485B000AF7860396075
:104730007B689B68FB60FB6823F07003FB603A6852
:10474000FB68134343F00703FB607B68FA689A60D9
:1047500000BF1437BD465DF8047B704780B487B056
:1047600000AFF860B9607A603B60FB689B687B6172
:104770007B6923F47F437B613B681A027B681A43A1
:10478000BB6813437A6913437B61FB687A699A605B
:1047900000BF1C37BD465DF8047B704780B485B010
:1047A00000AF786039607B6893F83C30012B01D111
:1047B00002235AE07B68012283F83C207B680222B6
:1047C00083F83D207B681B685B68FB607B681B6827
:1047D0009B68BB60FB6823F07003FB603B681B6851
:1047E000FA681343FB607B681B68FA685A607B6851
:1047F0001B68214A934222D07B681B68B3F1804F2B
:104800001DD07B681B681D4A934218D07B681B68CB
:104810001B4A934213D07B681B681A4A93420ED0FE
:104820007B681B68184A934209D07B681B68174A4B
:10483000934204D07B681B68154A93420CD1BB6835
:1048400023F08003BB603B685B68BA681343BB60BE
:104850007B681B68BA689A607B68012283F83D20F8
:104860007B68002283F83C20002318461437BD469D
:104870005DF8047B704700BF000001400004004069
:1048800000080040000C00400004014000400140CE
:104890000018004080B582B000AF78607B68002BC4
:1048A00001D1012342E07B6893F84130DBB2002B59
:1048B00006D17B68002283F840207868FDF7BEFAB5
:1048C0007B68242283F841207B681B68DA687B6858
:1048D0001B6822F40052DA60786800F011FD7B68F2
:1048E0001B681A697B681B6822F490421A617B6816
:1048F0001B685A697B681B6822F02A025A617B6830
:104900001B68DA687B681B6842F40052DA607B68D7
:1049100000225A647B68202283F841207B68202291
:1049200083F842207B6800225A6300231846083728
:10493000BD4680BD80B58CB000AFF860B96013464D
:10494000FB80FB6893F84230DBB2202B4AD1BB6876
:10495000002B02D0FB88002B01D1012343E0FB6830
:1049600001221A63FB6800225A63FB881A46B96861
:10497000F86800F0EDFA034687F82F3097F82F30EB
:10498000002B2CD1FB681B6B012B25D100233B6135
:10499000FB681B681B683B61FB681B685B683B61CD
:1049A0003B69FB681B680C33BB61BB6953E8003F84
:1049B0007B617B6943F01003BB62FB681B680C33AF
:1049C000BA6A7A623B62396A7A6A41E80023FB611B
:1049D000FB69002BE5D102E0012387F82F3097F81F
:1049E0002F3000E0022318463037BD4680BD00005E
:1049F00080B5BAB000AF78607B681B681B68C7F8E9
:104A0000E4307B681B68DB68C7F8E0307B681B68B4
:104A10005B69C7F8DC300023C7F8D8300023C7F83B
:104A2000D430D7F8E43003F00F03C7F8D830D7F804
:104A3000D830002B0FD1D7F8E43003F02003002B3F
:104A400009D0D7F8E03003F02003002B03D07868BA
:104A500000F097FB5BE2D7F8D830002B00F0DE8047
:104A6000D7F8DC3003F00103002B06D1D7F8E03093
:104A700003F49073002B00F0D180D7F8E43003F0FA
:104A80000103002B0BD0D7F8E03003F48073002B28
:104A900005D07B685B6C43F001027B685A64D7F8F1
:104AA000E43003F00403002B0BD0D7F8DC3003F024
:104AB0000103002B05D07B685B6C43F002027B682E
:104AC0005A64D7F8E43003F00203002B0BD0D7F878
:104AD000DC3003F00103002B05D07B685B6C43F0F6
:104AE00004027B685A64D7F8E43003F00803002B13
:104AF00011D0D7F8E03003F02003002B05D1D7F810
:104B0000DC3003F00103002B05D07B685B6C43F0C5
:104B100008027B685A647B685B6C002B00F0F281B2
:104B2000D7F8E43003F02003002B08D0D7F8E030AA
:104B300003F02003002B02D0786800F022FB7B6892
:104B40001B685B6903F04003402B0CBF012300236B
:104B5000DBB2C7F8D4307B685B6C03F00803002B32
:104B600003D1D7F8D430002B4FD0786800F02AFA60
:104B70007B681B685B6903F04003402B41D17B6875
:104B80001B681433C7F89C30D7F89C3053E8003FBB
:104B9000C7F89830D7F8983023F04003C7F8D030E2
:104BA0007B681B681433D7F8D020C7F8A820C7F853
:104BB000A430D7F8A410D7F8A82041E80023C7F8FC
:104BC000A030D7F8A030002BD9D17B68DB6B002B4D
:104BD00013D07B68DB6B7E4A1A657B68DB6B1846FB
:104BE000FEF763FB0346002B16D07B68DB6B1B6D67
:104BF0007A68D26B104698470EE0786800F09EF90C
:104C00000AE0786800F09AF906E0786800F096F912
:104C10007B6800225A6475E100BF73E17B681B6BFF
:104C2000012B40F04F81D7F8E43003F01003002B44
:104C300000F04881D7F8E03003F01003002B00F0BB
:104C400041810023BB607B681B681B68BB607B687D
:104C50001B685B68BB60BB687B681B685B6903F0B3
:104C60004003402B40F0B6807B68DB6B1B685B68C1
:104C7000A7F8BE30B7F8BE30002B00F045817B6846
:104C80009B8DB7F8BE209A4280F03E817B68B7F8D2
:104C9000BE20DA857B68DB6BDB69B3F5807F00F0D3
:104CA00088807B681B680C33C7F88830D7F8883059
:104CB00053E8003FC7F88430D7F8843023F480737A
:104CC000C7F8B8307B681B680C33D7F8B820C7F832
:104CD0009420C7F89030D7F89010D7F8942041E886
:104CE0000023C7F88C30D7F88C30002BD9D17B68E3
:104CF0001B6814337B677B6F53E8003F3B673B6F58
:104D000023F00103C7F8B4307B681B681433D7F86D
:104D1000B420C7F88020FB67F96FD7F8802041E8FE
:104D20000023BB67BB6F002BE1D17B681B6814338A
:104D30003B663B6E53E8003FFB65FB6D23F0400391
:104D4000C7F8B0307B681B681433D7F8B020FA6618
:104D5000BB66B96EFA6E41E800237B667B6E002B62
:104D6000E3D17B68202283F842207B6800221A630B
:104D70007B681B680C33FB64FB6C53E8003FBB642F
:104D8000BB6C23F01003C7F8AC307B681B680C3396
:104D9000D7F8AC20BA657B65796DBA6D41E8002320
:104DA0003B653B6D002BE3D17B68DB6B1846FEF760
:104DB0000CFA7B6802225A637B689A8D7B68DB8DD4
:104DC0009BB2D31A9BB219467868FCF7D5FE9BE0DC
:104DD0008B5000087B689A8D7B68DB8D9BB2D31A61
:104DE000A7F8CE307B68DB8D9BB2002B00F08E8065
:104DF000B7F8CE30002B00F089807B681B680C333D
:104E0000BB63BB6B53E8003F7B637B6B23F4907306
:104E1000C7F8C8307B681B680C33D7F8C8207A64A1
:104E20003B64396C7A6C41E80023FB63FB6B002B1D
:104E3000E3D17B681B6814337B627B6A53E8003FD5
:104E40003B623B6A23F00103C7F8C4307B681B68F0
:104E50001433D7F8C4203A63FB62F96A3A6B41E82D
:104E60000023BB62BB6A002BE3D17B68202283F85E
:104E700042207B6800221A637B681B680C333B610D
:104E80003B6953E8003FFB60FB6823F01003C7F861
:104E9000C0307B681B680C33D7F8C020FA61BB6157
:104EA000B969FA6941E800237B617B69002BE3D192
:104EB0007B6802225A63B7F8CE3019467868FCF74F
:104EC0005BFE23E0D7F8E43003F08003002B09D029
:104ED000D7F8E03003F08003002B03D0786800F0AF
:104EE000E8F814E0D7F8E43003F04003002B0ED0CC
:104EF000D7F8E03003F04003002B08D0786800F0CA
:104F000028F904E000BF02E000BF00E000BFE8377E
:104F1000BD4680BD80B483B000AF786000BF0C3761
:104F2000BD465DF8047B704780B483B000AF786005
:104F300000BF0C37BD465DF8047B704780B483B07A
:104F400000AF786000BF0C37BD465DF8047B70474A
:104F500080B485B000AFF860B9601346FB80FB6891
:104F6000BA689A62FB68FA889A85FB68FA88DA85DB
:104F7000FB6800225A64FB68222283F84220FB6807
:104F80001B69002B07D0FB681B68DA68FB681B688D
:104F900042F48072DA60FB681B685A69FB681B6820
:104FA00042F001025A61FB681B68DA68FB681B6803
:104FB00042F02002DA60002318461437BD465DF83F
:104FC000047B704780B495B000AF78607B681B6845
:104FD0000C337B637B6B53E8003F3B633B6B23F4F9
:104FE0009073FB647B681B680C33FA6C3A64FB6358
:104FF000F96B3A6C41E80023BB63BB6B002BE5D136
:105000007B681B6814333B623B6A53E8003FFB61DB
:10501000FB6923F00103BB647B681B681433BA6C23
:10502000FA62BB62B96AFA6A41E800237B627B6A72
:10503000002BE5D17B681B6B012B19D17B681B68AA
:105040000C33FB60FB6853E8003FBB60BB6823F098
:1050500010037B647B681B680C337A6CBA617B61DC
:105060007969BA6941E800233B613B69002BE5D1CE
:105070007B68202283F842207B6800221A6300BFED
:105080005437BD465DF8047B704780B584B000AFEF
:1050900078607B689B6BFB60FB680022DA85FB68AD
:1050A0000022DA84F868FFF749FF00BF1037BD46D9
:1050B00080BD80B485B000AF78607B6893F84130E4
:1050C000DBB2212B3ED17B689B68B3F5805F14D1A6
:1050D0007B681B69002B10D17B681B6AFB60FB6837
:1050E0001B881A467B681B68C2F308025A607B68FB
:1050F0001B6A9A1C7B681A6208E07B681B6A591C51
:105100007A6811621A787B681B685A607B68DB8C4E
:105110009BB2013B9BB27A681946D184002B0FD118
:105120007B681B68DA687B681B6822F08002DA60A3
:105130007B681B68DA687B681B6842F04002DA60B3
:10514000002300E0022318461437BD465DF8047BB7
:10515000704780B582B000AF78607B681B68DA6802
:105160007B681B6822F04002DA607B68202283F8AB
:1051700041207868FFF7CEFE002318460837BD4669
:1051800080BD80B58CB000AF78607B6893F842300A
:10519000DBB2222B40F0AE807B689B68B3F5805F6A
:1051A00017D17B681B69002B13D10023FB627B683E
:1051B0009B6ABB627B681B685B689BB2C3F3080396
:1051C0009AB2BB6A1A807B689B6A9A1C7B689A6257
:1051D00026E07B689B6AFB620023BB627B689B685E
:1051E000B3F5805F07D07B689B68002B0AD17B6892
:1051F0001B69002B06D17B681B685B68DAB2FB6A0F
:105200001A7008E07B681B685B68DBB203F07F0301
:10521000DAB2FB6A1A707B689B6A5A1C7B689A62D6
:105220007B68DB8D9BB2013B9BB27A681946D185C6
:10523000002B5DD17B681B68DA687B681B6822F0F5
:105240002002DA607B681B68DA687B681B6822F4DE
:105250008072DA607B681B685A697B681B6822F081
:1052600001025A617B68202283F842207B68002279
:105270005A637B681B6B012B35D17B6800221A6354
:105280007B681B680C337B617B6953E8003F3B61A3
:105290003B6923F010037B627B681B680C337A6ADE
:1052A0003A62FB61F9693A6A41E80023BB61BB6974
:1052B000002BE5D17B681B681B6803F01003102BE3
:1052C0000AD10023FB607B681B681B68FB607B685E
:1052D0001B685B68FB60FB687B689B8D1946786880
:1052E000FCF74AFC02E07868FFF71EFE002302E0AC
:1052F000002300E0022318463037BD4680BD000081
:105300002DE9B04FC0B000AFC7F8F400D7F8F430C3
:105310001B681B6923F44050D7F8F430D968D7F8DC
:10532000F4301A6840EA01031361D7F8F4309A6840
:10533000D7F8F4301B691A43D7F8F4305B691A4385
:10534000D7F8F430DB691343C7F8F830D7F8F430F6
:105350001B68DB6823F4164121F00C01D7F8F43008
:105360001A68D7F8F8300B43D360D7F8F4301B68CD
:105370005B6923F44070D7F8F4309969D7F8F430BA
:105380001A6840EA01035361D7F8F4301A688F4B6A
:105390009A4205D0D7F8F4301A688D4B9A4204D15E
:1053A000FEF722FFC7F8FC0003E0FEF709FFC7F88D
:1053B000FC00D7F8F430DB69B3F5004F40F00C8106
:1053C000D7F8FC300022C7F8E830C7F8EC20D7E95E
:1053D0003A4522462B469118B9655B41FB65D7E9F2
:1053E0001623214612EB0108294643EB01094FF031
:1053F00000024FF000034FEAC90343EA58734FEA33
:10540000C80290469946234618EB0303C7F8E030DC
:105410002B4649EB0303C7F8E430D7F8F4305B6858
:105420000022C7F8D830C7F8DC20D7E936120B467F
:10543000DB183B65134642EB03037B65D7E9142376
:10544000D7E93801FBF720FC02460B46614BA3FB72
:1054500002235B091C01D7F8FC300022C7F8D030CA
:10546000C7F8D420D7E9348942464B469118B9642D
:105470005B41FB64D7E91223414612EB010A49461E
:1054800043EB010B4FF000024FF000034FEACB0358
:1054900043EA5A734FEACA0292469B4643461AEBC6
:1054A0000303C7F8C8304B464BEB0303C7F8CC30B7
:1054B000D7F8F4305B680022C7F8C030C7F8C420C2
:1054C000D7E930120B46DB183B64134642EB03036B
:1054D0007B64D7E91023D7E93201FBF7D5FB0246FD
:1054E0000B4611463B4BA3FB01235B09642202FBE5
:1054F00003F3CB1ADB0003F13202364BA3FB02238A
:105500005B095B0003F4F8731C44D7F8FC300022FD
:10551000C7F8B830C7F8BC20D7E92E8942464B46B9
:105520009118B9635B41FB63D7E90E2341465118DB
:10553000396349464B417B634FF000024FF0000353
:10554000D7E90CAB5946CB00514643EA517351465B
:10555000CA0010461946034642469B18C7F8B030A9
:105560004B460A4642EB0303C7F8B430D7F8F43091
:105570005B680022C7F8A830C7F8AC20D7E92A1228
:105580000B46DB18BB62134642EB0303FB62D7E911
:105590000A23D7E92C01FBF777FB02460B460D4B9C
:1055A000A3FB02135B09642101FB03F3D31ADB00A5
:1055B0003233084AA2FB03235B0903F00702D7F842
:1055C000F4301B6822449A6006E100BF00100140DD
:1055D000001401401F85EB51D7F8FC300022C7F8BA
:1055E000A030C7F8A420D7E9288942464B46911835
:1055F00039625B417B62D7E908234146541849462A
:1056000043EB01054FF000024FF00003EB0043EACB
:105610005473E20014461D464346E318C7F8983019
:105620004B4645EB0303C7F89C30D7F8F4305B6872
:105630000022C7F89030C7F894204FF000024FF0D6
:105640000003D7E9244529468B00214643EA91739C
:1056500021468A00D7E92601FBF716FB02460B46D6
:10566000604BA3FB02235B091C01D7F8FC3000222E
:10567000C7F88830C7F88C20D7E9228942464B46C4
:105680009118B9615B41FB61D7E906234146511886
:10569000396149464B417B614FF000024FF00003F6
:1056A000D7E904AB5946CB00514643EA5173514602
:1056B000CA0010461946034642469B18C7F8803078
:1056C0004B460A4642EB0303C7F88430D7F8F43060
:1056D0005B680022BB67FA674FF000024FF00003DF
:1056E000D7E91E8949468B00414643EA91734146FA
:1056F0008A00D7E92001FBF7C7FA02460B4611469C
:10570000384BA3FB01235B09642202FB03F3CB1A92
:105710001B013233334AA2FB03235B0903F0F0037E
:105720001C44D7F8FC3000223B677A67D7E91C8914
:1057300042464B469118B9605B41FB60D7E90223B2
:1057400041465118396049464B417B604FF0000299
:105750004FF00003D7E900AB5946CB00514643EA6E
:1057600051735146CA0010461946034642469B18DB
:10577000BB664B460A4642EB0303FB66D7F8F430A0
:105780005B6800223B667A664FF000024FF0000330
:10579000D7E9188949468B00414643EA917341464F
:1057A0008A00D7E91A01FBF76FFA02460B460D4B48
:1057B000A3FB02135B09642101FB03F3D31A1B0152
:1057C0003233084AA2FB03235B0903F00F02D7F828
:1057D000F4301B6822449A6000BF07F58077BD460D
:1057E000BDE8B08F1F85EB5180B582B000AF786007
:1057F0007968034800F006F800BF0837BD4680BD51
:105800002805002080B584B000AF786039603B681F
:105810001B785A2B3BD13B6801331B78A52B36D123
:105820003B6803331B78832B31D13B689B78FB7338
:10583000FB7B0233FB733B6804331B781BB21B02F8
:105840001AB23B6805331B781BB213431BB2BB81F2
:10585000FB7B013B3A6813441B781BB21B021AB254
:10586000FB7B39680B441B781BB213431BB27B8153
:10587000FB7B3A6813441B787B727B689B68002B28
:1058800005D07B689B687A7A7989B889984700BF88
:105890001037BD4680BD0000024B0146186800F07D
:1058A00025B800BF6802002070B50F4E0C46316865
:1058B000054611B901F0E8FE30602146284601F0A6
:1058C000E3FE431C03D14FF0FF34204670BDC41CDF
:1058D00024F00304A042F8D0211A284601F0D4FE97
:1058E0000130F2D1EFE700BFF00500202DE9F843C9
:1058F000CD1C25F0030508350C2D38BF0C25002DD7
:10590000064601DBA94204D90C2333600020BDE820
:10591000F883DFF8D48000F069F8D8F800301C462E
:1059200044BB29463046FFF7BFFF431C044658D10D
:10593000D8F800402746002F43D1002C4BD02368D5
:105940003946304604EB030901F09EFE814542D101
:1059500021686D1A29463046FFF7A6FF01303AD07C
:1059600023682B442360D8F800305A6862BBC8F81B
:1059700000700FE02268521B20D40B2A17D961193E
:10598000A342256018BF5960636808BFC8F80010BB
:1059900062514B60304600F02FF804F10B00231DDC
:1059A00020F00700C21A1CBF1B1AA350AFE76268A1
:1059B000A3420CBFC8F800205A60EBE72346646896
:1059C000AEE73C467F68B6E71A465B68A342FBD168
:1059D00000235360DEE70C233360304600F00CF800
:1059E00094E70560D6E700BFF4050020014801F008
:1059F00098BE00BF38070020014801F093BE00BFE9
:105A00003807002070B504460D4645EC104B16468D
:105A100003F020FC51EC100B7EB1C5F30A53C3F127
:105A20006B03002B09DD1B0503F17F55002405F5F1
:105A3000401522462B46FAF7DFFD41EC100B70BDF6
:105A40002DE9F04F9FB00C46179200221A92059054
:105A50004FF0000A4FF0000B0A46199211782B29DB
:105A60004AD038D80D2932D8082932D800293BD05D
:105A700000220E92199D2A78302A40F0B2806A786E
:105A800002F0DF02582A6ED102930E9B01931AABEB
:105A900000938F4A05981BAB19A902F08BFD10F0FB
:105AA0000F06044605D0062E28D10135002319958E
:105AB0000E93179B002B40F08E850E9BCBB1524668
:105AC0000BF1004343EC102B1FB0BDE8F08F2029F1
:105AD000CED10132C1E72D29CAD101210E91511C2D
